:020000040800F2
:10000000D8080020A1010008074B0008CB430008D6
:10001000054B0008CD0A0008095400080000000044
:100020000000000000000000000000000B4B000872
:100030007D0B000800000000094B00080D4B000874
:10004000BB010008BB010008BB010008BB010008A0
:10005000BB010008BB010008BB010008BB01000890
:10006000BB010008BB010008BB010008BB01000880
:10007000D10A0008BB010008DD0A0008BB01000826
:10008000BB010008BB010008BB010008BB01000860
:10009000BB010008BB010008BB010008BB01000850
:1000A000BB010008BB010008BB010008BB01000840
:1000B000BB010008BB010008B54B0008BB010008EC
:1000C000BB010008BB010008BB010008BB01000820
:1000D000BB010008F1530008BB010008FD530008F4
:1000E000BB010008BB010008BB010008BB01000800
:1000F000BB010008BB010008BB010008BB010008F0
:10010000BB010008BB010008BB010008BB010008DF
:10011000BB010008BB010008BB010008BB010008CF
:10012000E90A0008F50A0008BB010008BB01000845
:10013000BB010008BB010008BB010008BB010008AF
:10014000BB010008BB010008BB010008BB0100089F
:10015000BB010008BB010008BB010008BB0100088F
:10016000BB010008BB010008BB010008BB0100087F
:10017000BB010008BB010008BB0100080000000033
:10018000BB010008BB010008DFF810D000F0D4FA72
:1001900000480047115D0008AFF30080D808002038
:1001A0000648804706480047FEE7FEE7FEE7FEE711
:1001B000FEE7FEE7FEE7FEE7FEE7FEE7A54B0008E9
:1001C000890100082DE9F05F0546002092469B4614
:1001D00088460646814640241BE02846414647465D
:1001E000224600F064F953465A46C01A914110D392
:1001F00011461846224600F04BF92D1A67EB01080C
:100200004F4622460120002100F042F917EB000979
:100210004E41201EA4F10104DFDC484631462A4647
:100220004346BDE8F09FD2B201E000F8012B491E21
:10023000FBD270470022F6E710B513460A46044683
:100240001946FFF7F0FF204610BD2DE9FE4F81EA69
:10025000030404F0004421F0004100944FF0000B2F
:1002600023F0004350EA01045ED052EA03045BD05D
:10027000C3F30A54C1F30A552C44A4F2F334019495
:10028000A0FB0254C1F3130141F48011C3F3130323
:1002900043F4801301FB024400FB034E840A970AD7
:1002A00044EA815447EA8357A4FB076802958D0A04
:1002B00005FB07854FEA932C04FB0C542705029D90
:1002C0004FEA065847EA1637B5EB08056EEB070C00
:1002D000870E920E47EA811742EA8312A7FB0201BA
:1002E000B6EB0B0164EB00042B0D43EA0C335E18F4
:1002F00044EB1C50DA465146E7FB0201C5F31304F8
:100300004FEA0B3343EA14534FEA0432019C43EAA9
:100310000603A4F10C040294009CCDE900B400F0A3
:10032000E5F803B0BDE8F08F00200146F9E72DE9BC
:10033000F04D81EA030404F0004B21F0004514461F
:100340004FF0000A23F0004150EA050220D054EAA1
:1003500001021DD0C5F30A570246C5F31303C1F3CA
:100360001300C1F30A5640F4801543F48013A7EB41
:100370000608101BD64608F2FD3873EB050002D3C1
:1003800008F1010801E092185B41B8F1000F03DAAF
:1003900000200146BDE8F08D00204FF48011064694
:1003A00084460EE0171B73EB050705D3121B63EBA6
:1003B000050306434CEA010C49084FEA3000921845
:1003C0005B4150EA0107EDD152EA030012D082EA04
:1003D000040083EA0501084305D0101BAB4106D297
:1003E0000122002306E000224FF0004302E06FF0FC
:1003F000010253101AEB06004CEB085110EB0A00F7
:1004000041EB0B01BDE8F04D00F061B8C1F30A52B9
:1004100010B5C1F3130140F2FF3341F480119A4249
:1004200001DA002010BD40F233439A42A2F2334277
:1004300003DC524200F03BF810BD904010BD00F0CC
:10044000004230F000400AD0C10D01F56071C0F3E8
:10045000160042EA0151C2084007114370470020CC
:100460000146704730B50B4601460020202201248A
:1004700009E021FA02F59D4205D303FA02F5491B72
:1004800004FA02F52844151EA2F10102F1DC30BD88
:10049000202A04DB203A00FA02F100207047914044
:1004A000C2F1200320FA03F3194390407047202A39
:1004B00004DB203A21FA02F00021704721FA02F30E
:1004C000D040C2F12002914008431946704710B550
:1004D000141E73F1000408DA401C41F10001921867
:1004E0005B411A4301D120F0010010BD2DE9F04D10
:1004F00092469B4611B1B1FA81F202E0B0FA80F265
:1005000020329046FFF7C4FF04460F4640EA0A0037
:1005100041EA0B0153465A46084313D0114653EAA9
:10052000010019D0C8F140025046FFF7C0FF054650
:100530000E46504659464246FFF7AAFF084305D0EB
:10054000012004E020463946BDE8F08D0020054337
:1005500046EAE0762C4337430A986305E40AA0EBA9
:1005600008000022FD0A44EA47540A3002D5002060
:100570000146E9E7010510196941DDE9084500195F
:100580006941BDE8F04DA2E72DE9FE4F804681EAC2
:100590000300C00F0C46009021F0004123F00045FD
:1005A000B8EB0200A94105D24046214690461C46C0
:1005B0000B46024623F00040104347D0270DC7F3F7
:1005C0000A00C3F30A510290401A019040286BDAE6
:1005D000C3F3130040F4801B0098924620B100231F
:1005E000D2EB030A63EB0B0B01985946C0F14002B2
:1005F0005046FFF74DFF06460D4650465946019AB4
:1006000000F0ACF810EB08006141002487EA1152B9
:1006100084EAE7731A4340D0009A62B3019A012A30
:100620004FEA075215DC001B61EB02014FF000425C
:1006300002EA0752CDE90042001C41F58011324622
:100640002B46FFF753FF03B0BDE8F08F404621462D
:10065000F9E7001B61EB0201001C41F58013001853
:100660005B412018A2F5001747EB030140EAD57063
:10067000B6196D4111E06D084FEA360645EAC075BE
:100680004FEA0752001B61EB0201001C41F580118B
:1006900049084FEA30000019514132462B4603B059
:1006A000BDE8F04FFFF713BF009801224000002380
:1006B000D0EB020263EBE073009821464FEAE0744E
:1006C000B8EB000061EB0401E9E783F000435BE76E
:1006D00081F0004158E7C1F30A52C1F3130140F21F
:1006E000FF3341F480119A4202DA0020014670473C
:1006F00040F233439A42A2F2334202DC5242FFF705
:10070000D6BEFFF7C5BE000030B5041E71F100046F
:1007100004DB4FF00044404264EB0101141E73F10E
:10072000000405DB1C464FF00043524263EB040318
:10073000994208BF904230BD064C074D06E0E06884
:1007400040F0010394E8070098471034AC42F6D318
:10075000FFF71EFDA45D0008C45D0008202A06DB2B
:10076000CB17203A41FA02F043EAE07306E041FA7F
:1007700002F3D040C2F1200291400843194670476D
:1007800070B506460C4610EE100AFFF758FE9FEDB6
:10079000251B53EC112BFFF758FD9FED241B53EC49
:1007A000112BFFF7C4FDFFF731FE00EE104ADFED1D
:1007B000210A9FED211AB8EE400A054646F400567C
:1007C00020EE200AC0EE010AB6EE000A30EE800AE2
:1007D000BCEEC00A10EE100A84B2B4F5805F01D3FB
:1007E00040F6FF7446F4807000F0A2F8012001F09A
:1007F0003BFCC5F30D0040F4804000F099F84FF445
:10080000804040EA953080B200F092F844F44040D5
:1008100000F08EF8012001F027FC3046BDE8704062
:1008200000F086B8000000000000B04100000000A9
:1008300084D77741000080450000B44300B587B0FD
:1008400014216846FFF7F6FC0B480021026842F0CD
:1008500004020260006800F0040005900720009088
:100860000120CDE90101022003906946034801F00F
:1008700061FC07B000BD00003038024000080240B3
:1008800010B5FFF7DBFFBDE810404FF4807000F0BB
:100890004FB800002DE9FC4104460020234E884655
:1008A0000090019001220221304601F0C1FD00229A
:1008B0000121304601F0BCFD00206D4604E0211806
:1008C00049782954401CC0B24045F8D300241DE0AB
:1008D0000027285D000601D5012200E00022042146
:1008E000304601F0A5FD00220221304601F0A0FDB6
:1008F000285D0122400028550221304601F098FD74
:100900007F1CFFB2082FE4D3641CE4B24445DFD35C
:1009100001220421304601F08BFD012211463046B0
:1009200001F086FD2046BDE8FC8100000008024081
:100930001CB5074AD2E90012CDE90012010A8DF870
:1009400001108DF8020002216846FFF7A3FF1CBDCD
:100950009C5D000810B504464B48416821F44031C5
:10096000416041686268114341602068416821F438
:100970008071416020684168226941EA022141603A
:100980002068416821F04071416020684168A26898
:10099000114341602068816821F400618160206812
:1009A0008168E26811438160A06A6FF07061C8429B
:1009B0002068816821F070618160206881680CD0B6
:1009C000A26A114381602068816821F040518160F2
:1009D00020688168E26A114301E021F040518160A2
:1009E0002068816821F00201816020688168227E90
:1009F00041EA4201816094F8200000283FD0606AFB
:100A0000401E072804D94FF4F56120A005F073F9C2
:100A10002068416841F4006141602068416821F428
:100A20006041416020684168264B626A03EB4232B4
:100A3000114341602068C16A21F47001C1622068DD
:100A4000C16AA28B204B03EB02521143C1622068A2
:100A5000816821F4007181602068816894F83020F9
:100A600041EA422181602068816821F480618160CF
:100A700020688168626941EA8221816010BD206836
:100A8000416821F40061D4E7002301402E2E2F4459
:100A90007269766572732F53544D333246347878C9
:100AA0005F48414C5F4472697665722F5372632FC1
:100AB00073746D3332663478785F68616C5F61643B
:100AC000632E630000E0FFFF0000F0FFFEE7000080
:100AD000014801F089B8000014040020014801F029
:100AE00083B8000074040020014801F07DB80000C4
:100AF000F8000020014801F077B8000058010020FC
:100B000001681823CAB2103AB2FBF3F2054B6FF337
:100B10000901032A9B5CC36500D9091D816508464C
:100B2000704700007C5D000810B5014600208B690D
:100B30008A6A4FF0C07453B1B3F5005F15D072B13B
:100B4000012A0CD0022A0AD0032A09D104E01AB1E2
:100B5000012A06D0022A03D1C96AC90100D50120A1
:100B600010BDC96AA142FAD010BD002AF7D0012AEF
:100B7000F2D0022AF3D0032AF3D010BD704772B628
:100B8000FEE7000070B515460C4606463BB1B3F5CE
:100B9000804F07D040F2B51130A005F0ACF86FF0EF
:100BA000704056E03B48864204D040F2BB112BA077
:100BB00005F0A1F820680F2804D94FF4DE7127A0B2
:100BC00005F099F86068401E0E2804D940F2BD1166
:100BD00022A005F090F8A068401EFE2804D94FF42A
:100BE000DF711EA005F087F8E0680F2804D940F2F5
:100BF000BF111AA005F07FF8A06968B1B0F1805F5D
:100C00000AD0B0F1005F07D0B0F1405F04D04FF4DC
:100C1000E07112A005F06FF855B1022D08D0042D37
:100C200006D0062D04D040F2C1110CA005F063F8E7
:100C3000A1692068A26808436168090141EA0221AC
:100C40000843A18940EA014056F82510124A114094
:100C5000084346F82500002070BD00002E2E2F44CA
:100C60007269766572732F53544D333246347878F7
:100C70005F48414C5F4472697665722F5372632FEF
:100C800073746D3332663478785F6C6C5F66736D45
:100C9000632E6300040100A00000F0CF70B50C4685
:100CA0000546B0F1204F03D0E4215FA005F023F802
:100CB000206848B1022807D0042805D0062803D0B0
:100CC000E52159A005F017F8606828B1022803D083
:100CD000E62155A005F00FF8A06838B1042805D02A
:100CE000082803D0E72150A005F005F8E06838B1E6
:100CF000102805D0202803D0E8214BA004F0FBFFEA
:100D0000206930B1B0F5807F03D0E92146A004F01E
:100D1000F2FF606930B1B0F5007F03D0EA2142A054
:100D200004F0E9FFA06930B1B0F5806F03D0EC2189
:100D30003DA004F0E0FFE06930B1B0F5006F03D0F2
:100D4000EE2139A004F0D7FF206A30B1B0F5805F02
:100D500003D0EF2134A004F0CEFF606A30B1B0F5CB
:100D6000005F03D0F02130A004F0C5FFA06A30B1CD
:100D7000B0F5804F03D0F1212BA004F0BCFFE06A56
:100D800030B1B0F5004F03D0F22127A004F0B3FF3B
:100D9000206B30B1B0F5002F03D0F32122A004F076
:100DA000AAFFE06B78B1B0F5803F0CD0B0F5003F02
:100DB00009D0B0F5403F06D0B0F5802F03D0FA211E
:100DC00019A004F098FF206855F8201021F00101C7
:100DD00045F82010A268082A23D000206168204B23
:100DE0001143E268024320691143014360690143F2
:100DF000E0690143206A0143606A0143A06A01433C
:100E0000E06A0143206B0143A0690843E16B0143A1
:100E1000206855F820209A430A4345F820200020F6
:100E200070BD4020DAE700002E2E2F4472697665EF
:100E300072732F53544D3332463478785F48414CA7
:100E40005F4472697665722F5372632F73746D33CA
:100E500032663478785F6C6C5F66736D632E630006
:100E60007FFF0F0070B515460C460646B0F1204FC7
:100E700004D040F2831137A004F03DFF20680F2812
:100E800004D94FF4C27133A004F035FF6068401EEE
:100E90000E2804D940F285112EA004F02CFFA06882
:100EA000401EFE2804D94FF4C3712AA004F023FF8A
:100EB000E0680F2804D940F2871126A004F01BFF38
:100EC0002069801E0E2804D94FF4C47121A004F0BB
:100ED00012FF6069801E0F2804D940F289111DA0FD
:100EE00004F009FFA16969B1B1F1805F0AD0B1F1E5
:100EF000005F07D0B1F1405F04D04FF4C57115A079
:100F000004F0F9FE55B1022D08D0042D06D0062DAF
:100F100004D040F28B110FA004F0EDFED4E90001E3
:100F200040EA0110A168A289090241EA024108438E
:100F3000218A164A02EB01510843217D520102EB3E
:100F400001610843A169084306EB85014860002060
:100F500070BD00002E2E2F447269766572732F5378
:100F6000544D3332463478785F48414C5F4472695F
:100F70007665722F5372632F73746D3332663478D3
:100F8000785F6C6C5F66736D632E63000000F0FF2A
:100F900070B5054608680C46122804D94FF44F7105
:100FA000BEA004F0A8FE6068401E032804D940F2E9
:100FB0003D31BAA004F09FFEA06890B1012810D086
:100FC00002280ED003280CD004280AD0052808D007
:100FD000062806D0072804D040F23E31AFA004F026
:100FE0008AFEBD4EA06998B3B0F5803F30D0B0F511
:100FF000003F2DD0B0F5403F2AD0B0F5802F27D04C
:10100000B0F5A02F24D0B0F5C02F21D0B0F5E02F3F
:101010001ED0B0F5002F1BD0B0F5102F18D0B0F5B2
:10102000202F15D0B0F5302F12D0B0F5402F0FD0B3
:10103000B0F5502F0CD0B0F5602F09D0B0F5702F5F
:1010400006D0B04204D040F23F3194A004F053FEE9
:101050002069401E032804D94FF450718FA004F07A
:101060004AFE607D30B1012804D040F241318BA0AE
:1010700004F041FE207D30B1012804D040F242311D
:1010800086A004F038FE2868406810F0407009D04F
:10109000B0F1807F0BD0B0F1007F0DD0B0F1407F78
:1010A0000ED010E0E068B0F5805F11D30BE0E0688F
:1010B000B0F5806F0CD306E0E068FF2808D902E0A5
:1010C000E0683F2804D940F2463174A004F013FED2
:1010D000A069B0420FD0E06968B1B0F5801F0AD0B6
:1010E000B0F5001F07D0B0F5401F04D040F24B31DF
:1010F0006AA004F000FE95F83C00012819D00120F8
:1011000085F83C00206807212A68092813D9D3688C
:101110000A3800EB400081408B43D3602078A168FF
:101120000A3800EB400081402868C2681143C16062
:1011300010E0022070BD136900EB400081408B433A
:1011400013612178A06801EB4101884029680A6990
:10115000104308612868816B21F44011816328687D
:10116000816B228A5D4B03EB02521143816320792C
:10117000217C401AC01C00EB80001F2181402868A0
:10118000826B8A4382632079217C401AC01C00EB69
:101190008001208880B2884029688A6B1043886368
:1011A000A069B0422868816821F4702181602868B4
:1011B00081680CD0A269114381602868816821F49C
:1011C0004011816028688168E269114301E021F4DF
:1011D00040118160607D00282868416802D041F498
:1011E000806101E021F480614160207D0028286851
:1011F000416802D041F4805101E021F48051416006
:101200006068012816D002281FD00328286827D03C
:10121000016A6FF30B0101622868016AE2681143F9
:10122000016230492A682E488A4227D12268122A50
:1012300020D023E0286841696FF30B0141612868E1
:101240004169E26811434161EBE7286881696FF306
:101250000B01816128688169E26811438161E0E7DF
:10126000C1696FF30B01C1612868C169E26811436C
:10127000C161D6E7426842F4800242602A688A422D
:1012800008D12168102901D0112903D1416841F406
:1012900000014160002085F83C0070BD2E2E2F44D7
:1012A0007269766572732F53544D333246347878B1
:1012B0005F48414C5F4472697665722F5372632FA9
:1012C00073746D3332663478785F68616C5F616423
:1012D000635F65782E63000001000F000000F0FFDF
:1012E000002301400020014070B50A680C46054605
:1012F000E2B1012A1AD0022A18D0052A16D0062AED
:1013000014D0072A12D0092A10D0112A0ED0122A7E
:101310000CD0152A0AD0162A08D0172A06D0192A66
:1013200004D040F2DB3136A004F0E5FC606868B11F
:10133000B0F5804F0AD0B0F5004F07D0B0F5404F60
:1013400004D04FF477712EA004F0D5FCA2688AB3C4
:10135000B2F5807F2ED0B2F5007F2BD0B2F5407F62
:1013600028D0B2F5806F25D0B2F5A06F22D0B2F5AB
:10137000C06F1FD0B2F5E06F1CD0B2F5006F19D06E
:10138000B2F5106F16D0B2F5206F13D0B2F5306FF2
:1013900010D0B2F5406F0DD0B2F5506F0AD0B2F553
:1013A000606F07D0B2F5706F04D040F2DD3114A049
:1013B00004F0A1FC95F83C0001281ED0012005F89E
:1013C0003C0F1E48416821F01F01416041682268BE
:1013D00011434160416821F44041416041686268C5
:1013E00011434160416821F4706141604168A26825
:1013F000114341600020287070BD022070BD0000C4
:101400002E2E2F447269766572732F53544D3332EA
:10141000463478785F48414C5F4472697665722F34
:101420005372632F73746D3332663478785F6861FA
:101430006C5F6164635F65782E6300000023014088
:10144000F8B500260546009608680C46122804D90F
:1014500040F28B615DA004F04EFC6068401E0F28D6
:1014600004D940F28C6159A004F045FCA06890B109
:10147000012810D002280ED003280CD004280AD04E
:10148000052808D0062806D0072804D040F28D6130
:101490004EA004F030FC95F83C00012819D0012042
:1014A00085F83C00206807212A68092813D9D368E9
:1014B0000A3800EB400081408B43D3602178A0685C
:1014C0000A3901EB410188402968CA681043C860A5
:1014D00010E00220F8BD136900EB400081408B430F
:1014E00013612178A06801EB4101884029680A69ED
:1014F0001043086160681F21072813D22A68536BC4
:10150000401E00EB800081408B435363217920888B
:10151000491E80B201EB8101884029684A6B104363
:10152000486327E02A680D2812D2136BC01F00EB16
:10153000800081408B43136321792088C91F80B2CA
:1015400001EB8101884029680A6B1043086311E0B0
:10155000D36A0D3800EB800081408B43D362217940
:1015600020880D3980B201EB810188402968CA6A60
:101570001043C86224492A6822488A4206D1226858
:10158000122A03D1426842F4800242602A688A42E9
:1015900018D12168102901D0112913D1416841F4D3
:1015A00000014160206810280CD1184818490068D3
:1015B000B0FBF1F000EB8000400000E0401E009026
:1015C0000028FBD185F83C600020F8BD2E2E2F446A
:1015D0007269766572732F53544D3332463478787E
:1015E0005F48414C5F4472697665722F5372632F76
:1015F00073746D3332663478785F68616C5F6164F0
:10160000632E6300002301400020014018000020E9
:1016100040420F002DE9F04704004FF000057DD057
:101620007249206888420AD07149884207D07149BE
:10163000884204D04FF4A1716FA004F05CFB606895
:1016400068B1B0F5803F0AD0B0F5003F07D0B0F5E3
:10165000403F04D040F2431167A004F04CFBA06867
:101660004FF080774FF000784FF0407950B1B8429A
:1016700008D0404506D0484504D04FF4A2715EA082
:1016800004F039FB206930B1012804D040F2451143
:1016900059A004F030FB207E30B1012804D04FF473
:1016A000A37155A004F027FB614EA06A80B3B84235
:1016B0002ED040452CD048452AD0B0F1806F27D09D
:1016C000B0F1A06F24D0B0F1C06F21D0B0F1E06FC5
:1016D0001ED0B0F1006F1BD0B0F1106F18D0B0F178
:1016E000206F15D0B0F1306F12D0B0F1406F0FD035
:1016F000B0F1506F0CD0B0F1606F09D0B0F1706FE5
:1017000006D0B04204D040F247113BA004F0F3FAF7
:10171000E06848B1B0F5006F06D000E043E04FF458
:10172000A47135A004F0E7FAE069401E0F2804D93F
:1017300040F2491130A004F0DEFA94F8300030B1E4
:10174000012804D04FF4A5712BA004F0D4FA6069ED
:10175000012807D030B1022804D040F24B1126A056
:1017600004F0C9FA94F8200030B1012804D04FF4F5
:10177000A67121A004F0BFFAA06AB0420FD0E06ABF
:1017800068B1B0F1805F0AD0B0F1005F07D0B0F16E
:10179000405F04D04FF4A87117A004F0ACFA206C9D
:1017A000002618B108E00120BDE8F087204600F0CF
:1017B00041F8666484F83C60206CC00610D4206C4C
:1017C00020F4885040F0020020642046FFF7C2F861
:1017D0006664206C20F0020040F00100206400E00C
:1017E000012584F83C602846DEE700000020014027
:1017F00000210140002201402E2E2F44726976659F
:1018000072732F53544D3332463478785F48414CCD
:101810005F4472697665722F5372632F73746D33F0
:1018200032663478785F68616C5F6164632E630050
:101830000100000F2DE9F04786B0064614216846E6
:10184000FEF7F8FC45484549DFF80CC1356800242F
:1018500014390322424B87154FF480684FF4006916
:101860004FF4005A654529D1056845F48075056037
:10187000006800F480700590086840F0010008607E
:101880000868694600F00100059004208DE8150005
:10189000184600F04FFC344D324805F10C0CC5E9F8
:1018A0000004AC608CE81007C5E9077428466C6238
:1018B0004BE0B563AE6306B0BDE8F087DFF8ACC0BF
:1018C000654517D1056845F400750560006800F4AA
:1018D00000700590086840F00100086008686946DB
:1018E00000F00100059008208DE81500184600F072
:1018F00021FCE0E71E4B9D42DDD1036843F4806389
:101900000360006800F480600590086840F02000E3
:1019100008600868009700F020000590CDE90124D8
:101920006946144800F006FC0F4D0E48603518302B
:1019300028604FF08060C5E9010405F10C032846DA
:1019400083E81007C5E907746C6200F01DFA0028EF
:10195000AFD0FFF714F9ACE7002001404438024053
:101960000000024010640240F80000200021014005
:1019700000220140001402402DE9F04116460D46B8
:10198000040049D0002D47D02868A0B1242812D0E7
:101990000C2810D014280ED01C280CD004280AD0F3
:1019A0002C2808D0342806D03C2804D04FF4747179
:1019B0001BA004F0A0F9686830B1022804D040F2FE
:1019C000D13117A004F097F936B1102E04D040F2AF
:1019D000D23113A004F08FF9607901281ED00127BD
:1019E0006771022020712368186806F0100240F623
:1019F000FE7191408843D5E9001529439140014388
:101A0000196020680168C0239340994301602771E1
:101A100000206071BDE8F0810120FBE70220F9E7BA
:101A20002E2E2F447269766572732F53544D3332C4
:101A3000463478785F48414C5F4472697665722F0E
:101A40005372632F73746D3332663478785F6861D4
:101A50006C5F6461632E630070B504000CD00D49A7
:101A60002068884204D040F217110BA004F043F91B
:101A70002079002510B105E0012070BD6571204678
:101A800000F026F80220207125610120207100203D
:101A900070BD0000007400402E2E2F4472697665E0
:101AA00072732F53544D3332463478785F48414C2B
:101AB0005F4472697665722F5372632F73746D334E
:101AC00032663478785F68616C5F6461632E6300AE
:101AD00010B586B0044614216846FEF7ABFB1149E9
:101AE000206888421CD110480021026842F0005250
:101AF0000260006800F0005005900B481038026842
:101B000042F001020260006800F001000590302000
:101B100000900320CDE901016946044800F00AFB6A
:101B200006B010BD00740040403802400000024082
:101B30002DE9F0410446876D00F0B0FC064694F8AC
:101B400035000025022806D08020606584F83450D6
:101B50000120BDE8F0812068016821F016010160D4
:101B60002068416921F080014161206C08B9A06CB6
:101B700020B12068016821F0080101602068016837
:101B800021F0010101600CE000F088FC801B0528B9
:101B900007D920206065032084F8350084F834508C
:101BA000D7E720680068C007EED194F85C103F20AA
:101BB0008840B860012084F8350084F83450002053
:101BC000C7E790F83510022903D080214165012034
:101BD0007047052180F835100068016821F0010187
:101BE00001600020704700002DE9F84304464FF0E3
:101BF0000009CDF8009063484FF41651A56D0068B8
:101C0000B0FBF1F72E6894F85C10082000FA01F19F
:101C100031420FD021680A6852070BD50A6822F0BA
:101C200004020A6094F85C108840A860606D40F07F
:101C30000100606594F85C104FF0010808FA01F0AB
:101C4000304208D021684969090604D5A860606D52
:101C500040F00200606594F85C1004208840304237
:101C600008D021680968890704D5A860606D40F034
:101C70000400606594F85C1010208840304218D051
:101C800021680968090714D5A8602068016849031C
:101C900004D50068000308D5A16C07E00168C905F8
:101CA00003D4016821F008010160216C09B12046CC
:101CB000884794F85C1020208840304231D0216859
:101CC0000968C9062DD5A86094F835000528206854
:101CD000016806D0490347D5006800031DD4616C34
:101CE0001CE021F0160101602068416921F08001AB
:101CF0004161206C08B9A06C20B12068016821F016
:101D00000801016094F85C103F208840A86084F8C6
:101D1000358084F83490216D1FE0E16B09B12046D5
:101D20008847606D00282BD0606DC00714D0052057
:101D300084F835002068016821F0010101600098F5
:101D4000401C0090B84203D820680068C007F6D154
:101D500084F8358084F83490E16C002910D001B00B
:101D60002046BDE8F04308470168C905D5D401689D
:101D700021F01001016084F8358084F83490CCE7BC
:101D8000BDE8F883180000202DE9F041044600F07A
:101D900085FB0546002C7CD0A249206888423ED0B5
:101DA000A049183188423AD09E493031884236D015
:101DB0009C494831884232D09A49603188422ED0BD
:101DC0009849783188422AD096499031884226D065
:101DD0009449A831884222D0934988421FD0924921
:101DE000183188421BD090493031884217D08E4933
:101DF0004831884213D08C49603188420FD08A49DB
:101E0000783188420BD088499031884207D0864982
:101E1000A831884203D0B72184A003F06CFF60682A
:101E2000C0B1B0F1007F15D0B0F1806F12D0B0F129
:101E3000C06F0FD0B0F1006F0CD0B0F1206F09D09F
:101E4000B0F1406F06D0B0F1606F03D0B82177A039
:101E500003F051FFA06838B1402805D0802803D096
:101E6000B92172A003F047FFE068B0F5007F04D00D
:101E700018B1BA216DA003F03EFF2069B0F5806F64
:101E800004D018B1BB2169A003F035FF606958B1D7
:101E900000E071E0B0F5006F06D0B0F5805F03D0D0
:101EA000BC2162A003F027FFA06948B1B0F5005F34
:101EB00006D0B0F5804F03D0BD215CA003F01BFF1E
:101EC000E06940B1B0F5807F05D0202803D0BE2165
:101ED00056A003F010FF206A60B1B0F5803F09D032
:101EE000B0F5003F06D0B0F5403F03D0BF214FA072
:101EF00003F001FF606A002832D0042806D0C02118
:101F00004AA003F0F8FE606A002829D0A06A48B110
:101F1000012807D0022805D0032803D0C52143A0FB
:101F200003F0E9FEE06A60B1B0F5000F09D0B0F14E
:101F3000807F06D0B0F1C07F03D0C6213BA003F064
:101F4000DAFE206B60B1B0F5001F09D0B0F5800F4C
:101F500006D0B0F5C00F03D0C72134A003F0CBFEEC
:101F6000022084F83500002684F834602068016877
:101F700021F0010101600EE00120BDE8F08100BF09
:101F800000F08CFA401B052805D92020606503204D
:101F900084F83500F1E720680068C007F0D12268B6
:101FA000116830480140D4E901031843D4E90335EE
:101FB0002B43184363691843A3691843E369184323
:101FC000236A18430843616A042903D1D4E90B1337
:101FD00019430843106020684069656A20F00700D3
:101FE00029460543012704290CD1A06A0543E06A6C
:101FF00040B12046FEF798FD20B14020606584F88E
:102000003570B9E7206845612046FEF779FD94F800
:102010005C203F2191408160666584F83570002026
:10202000ABE7000010600240106402402E2E2F44E7
:102030007269766572732F53544D33324634787813
:102040005F48414C5F4472697665722F5372632F0B
:1020500073746D3332663478785F68616C5F646D79
:10206000612E63003F8010F070B5044600F016FA50
:102070000546601C02D004480078044400F00EFAC3
:10208000401BA042FAD370BD0C0000202DE9F041A6
:1020900086B014216846FEF7CDF820480168002973
:1020A00039D1012101601E480024016841F001017D
:1020B000016000684FF4805800F001000C27CDF853
:1020C0000080CDE90470032602250396CDE9015472
:1020D0006946144800F02EF84FF68070CDE90005EF
:1020E00002AA694682E8D0000F4800F023F84CF2BB
:1020F0003370CDE9000502AA694682E8D0000B489A
:1021000000F018F802AA694682E8D000CDE90085FF
:10211000074800F00FF806B0BDE8F081000000208D
:10212000383802400014024000100240000C024007
:10213000001802402DE9F84FDFF888B20D4604463A
:1021400058451BD0A048844218D0A048844215D0DE
:102150009F48844212D09F4884420FD09E488442B8
:102160000CD09E48844209D09D48844206D09D48A8
:10217000844203D0AC219CA003F0BDFD286801047B
:10218000090C01D0000C03D0AD2197A003F0B3FDE2
:102190006868F8B101281DD011281BD0022819D079
:1021A000122817D0B0F5881F14D0B0F5041F11D035
:1021B000B0F5441F0ED0B0F5901F0BD0B0F5081F3E
:1021C00008D0B0F5481F05D0032803D0AE2186A063
:1021D00003F091FD00264FF0010A4FF0030900BF04
:1021E0000AFA06F02F688046074047457ED12879D5
:1021F00000F00300012801D002281DD1E86848B191
:10220000012807D0022805D0032803D0C02176A0DA
:1022100003F071FDA168720009FA02F08143E868D9
:1022200090400843A0606068297920EA0800C1F363
:102230000011B140014361602879C043800712D08A
:10224000A86838B1012805D0022803D0D12166A0A2
:1022500003F051FDE168720009FA02F08143A868B9
:1022600090400843E060287900F0030002282ED156
:102270002869F8B109281DD001281BD0022819D0DF
:10228000032817D0042815D0052813D0062811D00C
:1022900007280FD008280DD00A280BD00B2809D00A
:1022A0000C2807D00D2805D00F2803D0DE214EA022
:1022B00003F021FDF00804EB8002106A7107CB0ED9
:1022C0000F21994088432969994001431162206890
:1022D000720009FA02F18843297901F00301914063
:1022E00001432160686810F4403F00E063E062D081
:1022F0004C48016841F480410160006826F0030108
:1023000000F48040009048480A18D2F80808B10745
:102310000B0F0F21994088435C4501D1002123E038
:1023200029498C4201D101211EE028498C4201D16A
:10233000022119E026498C4201D1032114E02549EC
:102340008C4201D104210FE023498C4201D10521A7
:102350000AE022498C4201D1062105E020498C4245
:1023600001D1072100E0082199400143C2F8081873
:102370002E4908686A68B843D20200D5384308601D
:102380002A49091D08686A68B843920200D5384393
:1023900008602649091F08686A68B843920300D597
:1023A000384308602149083908686A68B843D2038D
:1023B00000D538430860761C102EFFF411AFBDE83D
:1023C000F88F0000000002400004024000080240B4
:1023D000000C0240001002400014024000180240AD
:1023E000001C0240002002402E2E2F4472697665A8
:1023F00072732F53544D3332463478785F48414CD2
:102400005F4472697665722F5372632F73746D33F4
:1024100032663478785F68616C5F6770696F2E63CD
:10242000000000004438024000300140083C0140F8
:1024300070B515460C00064604D140F29D1108A067
:1024400003F059FC45B1012D04D04FF4CF7104A025
:1024500003F051FCB46170BD2004B06170BD000098
:102460002E2E2F447269766572732F53544D33327A
:10247000463478785F48414C5F4472697665722FC4
:102480005372632F73746D3332663478785F68618A
:102490006C5F6770696F2E63000000000148806800
:1024A000704700000C000020024881680278114447
:1024B000816070470C0000200B4810B5016841F4A2
:1024C00000710160016841F480610160016841F4BC
:1024D00080710160032000F0C3F80F2000F006F8BF
:1024E00000F024F8002010BD003C024070B50D4DF6
:1024F00004464FF47A712878B1FBF0F00A49096874
:10250000B1FBF0F000F0E6FC48B9102C07D2002235
:102510002146501E00F054F800206C6070BD012070
:1025200070BD00000C000020180000200A4808B50B
:10253000016841F480410160006800F4804000902F
:102540000548001F016841F080510160006800F0FB
:102550008050009008BD00004438024010B50400CF
:1025600003D5BC2107A003F0C6FB002C09DB04F057
:102570001F01012088406109890001F1E021C1F8B3
:10258000000110BD2E2E2F447269766572732F5391
:10259000544D3332463478785F48414C5F44726919
:1025A0007665722F5372632F73746D33326634788D
:1025B000785F68616C5F636F727465782E6300008A
:1025C00070B515460C460646102A03D3A82114A060
:1025D00003F091FB102C03D3A92111A003F08BFB76
:1025E0001E480068C0F30223C3F107022046042AF4
:1025F00000D90422191D072901D2002300E0DB1EA7
:10260000012404FA02F1491E014099409C40641ED5
:102610002C4021433046BDE8704002F007BF000067
:102620002E2E2F447269766572732F53544D3332B8
:10263000463478785F48414C5F4472697665722F02
:102640005372632F73746D3332663478785F6861C8
:102650006C5F636F727465782E6300000CED00E0B0
:1026600010B5044607280BD0062C09D0052C07D03E
:10267000042C05D0032C03D0902108A003F03BFBD1
:10268000154904F0070208684FF6FF03184040EAB6
:102690000220124A1043086010BD00002E2E2F4465
:1026A0007269766572732F53544D3332463478789D
:1026B0005F48414C5F4472697665722F5372632F95
:1026C00073746D3332663478785F68616C5F636F02
:1026D000727465782E6300000CED00E00000FA05CE
:1026E0002DE9F0470E4604007DD02068401E0E28DC
:1026F00004D940F25A217AA003F0FDFA96B1012ED6
:1027000010D0022E0ED0032E0CD0042E0AD0052E8F
:1027100008D0062E06D0072E04D040F25B2170A010
:1027200003F0E9FADFF8F081D8F80000F7B200F022
:102730000700B04207D288F80070D8F8000000F017
:102740000700B0424FD12068744D810729D540075A
:1027500003D5286840F4E05028602078000703D5AE
:10276000286840F460402860A068A0B1802812D09A
:10277000902810D0A0280ED0B0280CD0C0280AD0A5
:10278000D02808D0E02806D0F02804D040F27E21DE
:1027900053A003F0B0FA2868A16820F0F0000843C5
:1027A00028602078C00743D0DFF870916068A9F1F5
:1027B000080988B1012822D0022824D0032822D079
:1027C00040F2852146A003F096FA6068012816D0F1
:1027D000022818D0032816D0D9F800008007002856
:1027E00033DA286800E030E0616820F00300084335
:1027F0002860FFF753FE814641F2883A11E0D9F88C
:1028000000008003EBE7D9F800008001E7E700BF94
:10281000FFF744FEA0EB0901514502D90320BDE8B2
:10282000F0872868616800F00C00B0EB810FEFD1F1
:10283000D8F80010404601F00701B14207D90770EF
:10284000006800F00700B04201D00120E7E72078DF
:102850004FF4805640074FF4A0574FF4C0584FF440
:10286000E05914D5E06860B1B0420AD0B84208D04F
:10287000404506D0484504D040F2C32118A003F0DB
:102880003AFA2868E16820F4E0500843286020788C
:10289000000715D5206960B1B0420AD0B84208D00F
:1028A000404506D0484504D040F2CA210CA003F0B0
:1028B00022FA2868216920F4604040EAC1002860BB
:1028C00000F054F82968164AC1F30311515CC8405E
:1028D0001449086014480068FFF708FE00209EE7CE
:1028E0002E2E2F447269766572732F53544D3332F6
:1028F000463478785F48414C5F4472697665722F40
:102900005372632F73746D3332663478785F686105
:102910006C5F7263632E6300003C02400838024023
:10292000845D0008180000201000002004480549BC
:1029300000680968044AC1F38221515CC8407047AD
:102940001800002008380240945D0008044805493A
:1029500000680968044AC1F34231515CC8407047BD
:102960001800002008380240945D0008154810B592
:10297000006810F00C02144813D04110042A0FD044
:10298000082A0ED10F4C241F2268236802F03F0250
:102990005B0207D52068C0F38810A0FB010106E0A8
:1029A000084610BD2168C1F38811A1FB0001002376
:1029B000FDF708FC2168C1F30141491C4900B0FB47
:1029C000F1F010BD083802400024F4002DE9F84F62
:1029D00004007DD020680F2803D9E621F7A003F07A
:1029E0008AF92078DFF80C94C007A9F1040555D0C6
:1029F00060684FF480364FF4A02738B1B04205D05C
:102A0000B84203D0EB21EDA003F075F9F948001DA1
:102A10000168C1F38101012908D00068C0F3810079
:102A200002280AD1D9F80000400206D528688003A0
:102A300034D560680028CCD030E06068B04203D163
:102A4000286840F480300CE0B842286803D140F494
:102A500080202860F4E720F480302860286820F483
:102A600080202860606860B1FFF718FD064604E02A
:102A7000FFF714FD801B64287ED828688003F7D5F3
:102A80000CE0FFF70BFD064605E000BFFFF706FD73
:102A9000801B6428F0D828688003F7D42078DFF8FA
:102AA000588380074FF0000A56D5E06830B10128FE
:102AB00004D040F21D11C1A003F01DF920691F28A8
:102AC00004D94FF48F71BDA003F015F9C94800E097
:102AD00092E0001D016811F00C0F08D00068C0F3EF
:102AE0008100022810D1D9F8000040020CD42868D7
:102AF000800702D5E06801287ED12868216920F08E
:102B0000F80040EAC10017E0E068B8B10120C8F859
:102B10000000FFF7C3FC064605E000BFFFF7BEFC60
:102B2000801B0228A8D828688007F7D5286820F0DD
:102B3000F801206941EAC00028600DE0C8F800A053
:102B4000FFF7ACFC064604E0FFF7A8FC801B022858
:102B500092D828688007F7D4207800072ED5A54E94
:102B6000A64F60697036D0B1012808D04FF4AF711C
:102B700092A003F0C0F800E04BE1606978B1012059
:102B80003860FFF78BFC074605E000BFFFF786FCC7
:102B9000C01B0228C6D830688007F7D50EE0C7F8FA
:102BA00000A0FFF77BFC074605E000BFFFF776FCBF
:102BB000C01B0228B6D830688007F7D420784007B9
:102BC00076D5A068002740B1012806D0052804D09A
:102BD0004FF4C57179A003F08EF8DFF818B20BF14D
:102BE0003C0BDBF80000C0000DD4DBF8001041F016
:102BF0008051CBF8001000E038E1DBF8000001273D
:102C000000F0805000907E4E3068C00511D43068CE
:102C100040F480703060FFF741FC009006E000BF98
:102C2000FFF73CFC0099401A022891D83068C00593
:102C3000F6D5704EA0686C3601280FD00528306894
:102C400010D020F001003060306820F004003060C7
:102C5000A068B8B1FFF722FC00900FE0306840F0A8
:102C60000100F4E740F004003060F7E7FFF716FCDE
:102C70000099411A41F2883081428BD83068800730
:102C8000F4D50EE0FFF70AFC009007E0FFF706FC22
:102C90000099411A41F2883081428BD83068800710
:102CA000F4D42FB1DBF8001021F08051CBF80010E4
:102CB000A069002876D0012809D0022807D040F268
:102CC000CD113EA003F017F8A0690028F2D04948C2
:102CD000001D0068C0F381000228A0696DD00228A1
:102CE00005D0C8F860A0FFF7D9FB044694E0E0697E
:102CF00038B1B0F5800F04D04FF4EB712FA002F083
:102D0000FAFF206A801E3D2804D940F2D7112BA07B
:102D100002F0F1FF606A3238B0F5BF7F04D94FF49A
:102D2000EC7126A002F0E7FFA06A02280AD004286E
:102D300008D0062806D0082804D040F2D9111FA0D8
:102D400002F0D9FFE06A801E0D2804D94FF4ED711E
:102D50001AA002F0D0FF4746C8F860A0FFF79EFB1C
:102D6000064604E0FFF79AFB801B022851D828682A
:102D70008001F7D4D4E907010843A16A214A490830
:102D800002EB0141626A41EA8211084394F82C1077
:102D900040EA0161C9F8001001203866FFF77EFBA8
:102DA000044606E064E000BFFFF778FB001B022842
:102DB0002FD828688001F7D55AE031E02E2E2F4415
:102DC0007269766572732F53544D33324634787876
:102DD0005F48414C5F4472697665722F5372632F6E
:102DE00073746D3332663478785F68616C5F7263D8
:102DF000632E63000438024000004742800E4742C1
:102E0000007000400000FFFFFFF748FB001B022896
:102E100002D90320BDE8F88F28688001F4D427E0A8
:102E20000128F7D0D9F80000E26900F4800191424E
:102E30001CD1226A00F03F01914217D147F6C071C0
:102E4000626A0140B1EB821F10D1A26A4FF0FF33DA
:102E500000F4403103EB5202B1EB024F06D194F87B
:102E60002C1000F07060B0EB016F01D00120D1E7B1
:102E70000020CFE770B515460E46040003D094F845
:102E8000490010B107E0012070BD002084F848001F
:102E9000204600F01DF804F108012068FDF7FEFE51
:102EA0003146A2682068FDF7DDFFD4E9010229461A
:102EB000236BFDF767FE2168A06851F8202042F0DF
:102EC000010241F82020012084F84900002070BD53
:102ED000FFF7DCB810B5401EB0F1807F01D30120B0
:102EE00010BD4FF0E02460610F21601702F09EFAE0
:102EF0000020A06107202061002010BD70477047AE
:102F00002DE9F05F044600683A4E3B4FDFF8EC8055
:102F1000DFF8EC90DFF8ECA00D464FF0804BB042AC
:102F200015D0584513D0B84211D040450FD0484570
:102F30000DD04FEAB641884209D03349884206D0C5
:102F4000504504D040F2A97130A002F0D4FE2868A8
:102F500090B1102810D020280ED030280CD0402856
:102F60000AD0502808D0602806D0702804D040F23B
:102F7000AA7126A002F0BFFE6868802805D020B1A3
:102F800040F2AB7121A002F0B6FE94F83C0001289B
:102F90002DD0012284F83C20022084F83D002168D5
:102FA00048688B6820F0700C286840EA0C00486084
:102FB0002068B0420FD058450DD0B8420BD04045E4
:102FC00009D0484507D0504505D01F49884202D056
:102FD0001E49884204D1696823F080031943816047
:102FE00084F83D20002084F83C00BDE8F09F0220DA
:102FF000FBE7000000000140000400400008004022
:10300000000C004000040140001400402E2E2F440C
:103010007269766572732F53544D33324634787823
:103020005F48414C5F4472697665722F5372632F1B
:1030300073746D3332663478785F68616C5F74697D
:103040006D5F65782E63000000400140001800406D
:1030500070B5040057D0484920688E03474D884218
:1030600029D0B04227D04649884224D045498842D9
:1030700021D0A8421FD0444988421CD043498842ED
:1030800019D04349884216D04249884213D0424958
:10309000884210D0414988420DD0414988420AD027
:1030A0004049884207D04049884204D040F2131179
:1030B0003EA002F020FEA06860B110280AD02028AF
:1030C00008D0402806D0602804D04FF48A7137A079
:1030D00002F011FE206950B1B0F5807F07D0B0F545
:1030E000007F04D040F2151130A002F004FE2068E9
:1030F000B0420AD0A84208D0E0684FF6FE71401EE8
:10310000884209D903E0012070BDE06820B94FF47E
:103110008B7126A002F0EFFDA06930B1802804D0A9
:1031200040F2171121A002F0E6FD94F83D0028B905
:10313000002084F83C00204600F054F8022084F877
:103140003D00211D206801F03BFD012084F8460070
:1031500084F83E0084F83F0084F8400084F8410081
:1031600084F8420084F8430084F8440084F8450061
:1031700084F83D00002070BD00000140000C0040BC
:10318000000400400008004000100040001400400F
:10319000000401400040014000440140004801405B
:1031A00000180040001C0040002000402E2E2F443C
:1031B0007269766572732F53544D33324634787882
:1031C0005F48414C5F4472697665722F5372632F7A
:1031D00073746D3332663478785F68616C5F7469DC
:1031E0006D2E630010B586B0044614216846FDF7C5
:1031F00021F8216800222448B1F1804F0CD0234BE4
:10320000994211D1016841F002010160006800F0AB
:103210000200059006B010BD016841F00101016097
:10322000006800F00100F4E7194B994225D10168CC
:1032300041F004010160006800F0040005901248AC
:103240001038016841F0080101600068694600F02B
:1032500008000590981400900220CDE90102CDE904
:1032600003200C48FEF766FF002201211E20FFF715
:10327000A7F91E20FFF772F9CCE707488142C9D1B0
:103280000148001DBEE70000403802400004004035
:1032900000080040000C0240000401402DE9F84FF6
:1032A00005460020009095F83C000C46012841D0CE
:1032B000012085F83C00022085F83D0020684FF48D
:1032C000805B584516D0702814D0B0F5005F11D03F
:1032D00040280FD050280DD060280BD050B11028B6
:1032E00008D0202806D0302804D041F2C341D4A011
:1032F00002F001FD2868816821F0770121F47F4107
:1033000081602068DC49DD4ADD4BDE4EDE4FDFF8B0
:103310007CC3DFF87C834FF080494FF4004A50288B
:103320007ED00FDC202804D007DC0028FBD010283A
:1033300077D161E10220BDE8F88F3028F9D040282C
:10334000F6D126E160286DD0702874D0584544D05D
:103350004FF400584045EBD1286888420ED04845CC
:103360000CD090420AD0984208D0B04206D0B84261
:1033700004D041F2EE41B2A002F0BDFCA06858B109
:10338000584509D0404507D0B0F5405F04D041F220
:10339000F141ABA002F0AFFC6068504509D040B1EC
:1033A000022806D00A2804D041F2F241A4A002F07B
:1033B000A2FCE0680F2804D941F2F341A0A002F07A
:1033C0009AFCD4E90121E368286801F061FC2868CF
:1033D000816841F48041816029E128688842FBD0FE
:1033E0004845F9D09042F7D09842F5D0B042F3D09A
:1033F000A8498842F0D0A8498842EDD0B842EBD025
:103400006045E9D0A5498842E6D0A5498842E3D085
:103410004045E1D0A3498842DED0A349884203E079
:103420004FE002E180E006E0D6D041F2CF4184A037
:1034300002F061FCFBE02868884212D0484510D0B9
:1034400090420ED098420CD0B0420AD0B84208D078
:10345000604506D0404504D041F2D64178A002F044
:103460004AFCA06860B158450AD0B0F5005F07D0AB
:10347000B0F5405F04D041F2D94171A002F03BFCAD
:103480006068504509D040B1022806D00A2804D00F
:1034900041F2DA416AA002F02EFCE0680F2804D95C
:1034A00041F2DB4166A002F026FCD4E90121E36889
:1034B000286801F0EDFB2968886840F07700886093
:1034C000B5E02868884212D0484510D090420ED00E
:1034D00098420CD0B0420AD0B84208D0604506D01D
:1034E000404504D041F2025155A002F004FC60684E
:1034F000504509D040B1022806D00A2804D041F234
:1035000005514FA002F0F7FBE0680F2804D941F203
:1035100006514BA002F0EFFBE2686168286801F0F9
:1035200035FD5021286831E02868884212D048458E
:1035300010D090420ED098420CD0B0420AD0B8427F
:1035400008D0604506D0404504D041F212513CA05D
:1035500002F0D1FB6068504509D040B1022806D086
:103560000A2804D041F2155135A002F0C4FBE068EE
:103570000F2804D941F2165131A002F0BCFBE268D9
:103580006168286801F054FD6021286801F08AFB19
:103590004DE02868884212D0484510D090420ED0A5
:1035A00098420CD0B0420AD0B84208D0604506D04C
:1035B000404504D041F2225121A002F09CFB6068FA
:1035C000504509D040B1022806D00A2804D041F263
:1035D00025511BA002F08FFBE0680F2804D941F2AF
:1035E000265117A002F087FBE2686168286801F0A5
:1035F000CDFC40212868C9E72868884212D0484598
:1036000010D090420ED098420CD0B0420AD0B842AE
:1036100008D0604506D0404504D041F2355108A09D
:1036200002F069FB21682868B0E7012000900120C2
:1036300085F83D00002085F83C0000987BE60000FE
:103640002E2E2F447269766572732F53544D333288
:10365000463478785F48414C5F4472697665722FD2
:103660005372632F73746D3332663478785F686198
:103670006C5F74696D2E630000000140000400401F
:1036800000080040000C00400004014000400140E0
:1036900000180040001000400014004000440140A9
:1036A00000480140001C004000200040704700001E
:1036B0002DE9F84F054600200090924F2868DFF86A
:1036C0004882DFF84892DFF848A2DFF848B2164691
:1036D0000C46B84221D0B0F1804F1ED040451CD0DE
:1036E00048451AD0504518D0584516D08A498842C6
:1036F00013D08A49884210D0894988420DD089491F
:1037000088420AD08849884207D08849884204D034
:1037100041F21D0186A002F0EEFA206840B10228B5
:1037200006D00A2804D041F21E0181A002F0E3FA7B
:103730006068012808D0022806D0032804D041F28E
:103740001F017BA002F0D7FAA06850B1042808D06E
:10375000082806D00C2804D04FF4815174A002F040
:10376000CAFAE0680F2804D941F2210170A002F0E2
:10377000C2FA95F83C00012810D0012085F83C00E1
:1037800076B1042E1CD0082E45D00C2E7CD0009093
:10379000002085F83C000098BDE8F88F0220FBE788
:1037A000D4E90012E368286801F002FC2868816906
:1037B00021F00C01816128688169A268114328E029
:1037C0002868B84215D0B0F1804F12D0404510D0D3
:1037D00048450ED050450CD058450AD04E49884235
:1037E00007D05049884204D041F2370150A002F07E
:1037F00082FAD4E90012E368286801F02BFC2868FB
:10380000816921F44061816128688169A26841EA87
:1038100002218161BCE72868B8420FD0B0F1804F27
:103820000CD040450AD0484508D0504506D05845F0
:1038300004D041F247013EA002F05DFA2868D4E9C5
:103840000027267B036A016A21F480710162C16945
:1038500023F4206321F00301394321F0F0073107FD
:103860004FF4206647EA116106EA02221A43C16159
:1038700002622868C16921F00C01C1612868C16930
:10388000A26811433BE0FFE72868B8420FD0B0F1CF
:10389000804F0CD040450AD0484508D0504506D04E
:1038A000584504D041F2570121A002F024FA2868BB
:1038B000D4E90036E168026A076A27F48057076294
:1038C000C76927F4407747EA06264FF6FF7726F4C4
:1038D000704607EA0131314322F420464FF420427A
:1038E00002EA03323243C16102622868C16921F4ED
:1038F0004061C1612868C169A26841EA0221C161D1
:1039000046E70000000001400004004000080040BD
:10391000000C004000040140004001400044014010
:103920000048014000180040001C004000200040FA
:103930002E2E2F447269766572732F53544D333295
:10394000463478785F48414C5F4472697665722FDF
:103950005372632F73746D3332663478785F6861A5
:103960006C5F74696D2E630070B5040057D04849D0
:1039700020688E03474D884229D0B04227D046495F
:10398000884224D04549884221D0A8421FD04449CA
:1039900088421CD04349884219D04349884216D0F6
:1039A0004249884213D04249884210D04149884256
:1039B0000DD0414988420AD04049884207D0404949
:1039C000884204D040F2C4713EA002F094F9A0688D
:1039D00060B110280AD0202808D0402806D06028DE
:1039E00004D040F2C57137A002F085F9206950B1CA
:1039F000B0F5807F07D0B0F5007F04D040F2C671EB
:103A000030A002F078F92068B0420AD0A84208D06D
:103A1000E0684FF6FE71401E884209D903E001209C
:103A200070BDE06820B940F2C77126A002F063F9CA
:103A3000A06930B1802804D04FF4F96121A002F0D0
:103A40005AF994F83D0028B9002084F83C0020463B
:103A500000F054F8022084F83D00211D206801F098
:103A6000AFF8012084F8460084F83E0084F83F0057
:103A700084F8400084F8410084F8420084F8430050
:103A800084F8440084F8450084F83D00002070BDAF
:103A900000000140000C004000040040000800400D
:103AA00000100040001400400004014000400140AC
:103AB000004401400048014000180040001C004044
:103AC000002000402E2E2F447269766572732F53AA
:103AD000544D3332463478785F48414C5F447269C4
:103AE0007665722F5372632F73746D333266347838
:103AF000785F68616C5F74696D2E630010B586B085
:103B0000044614216846FCF795FB12492068884258
:103B10001DD111480021026842F0080202600068CD
:103B200000F0080005900C481038026842F00102CD
:103B30000260006800F00100059002200090CDE9CD
:103B40000101CDE9031069460448FEF7F3FA06B017
:103B500010BD0000000C0040403802400000024050
:103B60002DE9F04104460068C66805694FF000077A
:103B7000A90713D5B10711D5F91E016101202077DE
:103B8000206880698007204602D0FFF78FFD04E09F
:103B900000F07EF8204600F07CF82777680716D5FD
:103BA000700714D521686FF00400086102202077A7
:103BB0002068806910F4407F204602D0FFF776FD30
:103BC00004E000F065F8204600F063F82777280746
:103BD00015D5300713D521686FF00800086104205F
:103BE00020772068C0698007204602D0FFF75EFD7D
:103BF00004E000F04DF8204600F04BF82777E80687
:103C000016D5F00614D521686FF010000861082061
:103C100020772068C06910F4407F204602D0FFF76B
:103C200045FD04E000F034F8204600F032F8277734
:103C3000E80708D0F00706D021686FF0010008619E
:103C4000204600F027F8280608D5300606D521685A
:103C50006FF0800008612046FFF750F9680608D52C
:103C6000700606D521686FF040000861204600F01C
:103C7000ADF8A8060AD5B00608D521686FF0200077
:103C800008612046BDE8F041FFF739B9BDE8F08191
:103C9000704770477047000070B50D4604460068D5
:103CA0003549884219D0B0F1804F16D03349884247
:103CB00013D03349884210D0324988420DD032495E
:103CC00088420AD03149884207D03149884204D01D
:103CD00041F275512FA002F00EF8286860B1042857
:103CE0000AD0052808D0062806D0072804D041F2BB
:103CF000765128A001F0FFFF686890B1102810D01D
:103D000020280ED030280CD040280AD0502808D0C7
:103D1000602806D0702804D041F277511DA001F030
:103D2000EAFF94F83C00012813D0012684F83C6097
:103D3000022084F83D002946204600F0BBFF010028
:103D40004FF0000007D084F83D6084F83C0001206B
:103D500070BD022070BD2168CA6822F04002CA60AE
:103D60002168CA6822F48042CA6084F83D6084F801
:103D70003C00002070BD0000000001400004004035
:103D800000080040000C00400004014000400140D9
:103D9000001800402E2E2F447269766572732F53DF
:103DA000544D3332463478785F48414C5F447269F1
:103DB0007665722F5372632F73746D333266347865
:103DC000785F68616C5F74696D2E6300704770473F
:103DD00070470000F8B5016804460868CA684B6976
:103DE00010F00F0F4FF0000559D003F0010602F458
:103DF0009077374365D0C10705D0D10503D5616CF5
:103E000041F001016164410705D5D90703D0616C18
:103E100041F002016164810705D5D90703D0616CC7
:103E200041F004016164010707D502F0200131432C
:103E300003D0616C41F008016164616C00293AD0E3
:103E4000800604D5900602D5204601F04CF9206882
:103E50004069616CC0F38010090700D460B320464C
:103E600001F01AF920684069400621D52068143015
:103E700050E8001F21F0400140E80012002AF5D16F
:103E8000E06BA8B172490165E06BFDF79AFE00286E
:103E900011D0E06B016D01B0BDE8F040084783062A
:103EA0000FD593060DD52046BDE8F84001F01BB9AB
:103EB0002046FFF78DFFF8BD2046FFF789FF6564B8
:103EC000F8BD266B2023012E7ED1C6067CD5D606F2
:103ED0007AD508684868009048694FF002064006A5
:103EE0004DD5E26B106840684FF480770004000CF9
:103EF0003AD0A18D814237D9E085D069B8422DD022
:103F000020680C3050E8001F21F4807140E8001256
:103F1000002AF5D12068143050E8001F21F001017B
:103F200040E80012002AF5D12068143050E8001F44
:103F300021F0400140E80012002AF5D184F8423017
:103F4000256320680C3050E8001F21F0100140E884
:103F50000012002AF5D1E06BFDF7EAFD6663A08D43
:103F6000E18D401A81B206E0A18D8142A8D1D069CD
:103F7000B842A5D166632046FFF729FFF8BDA08DA2
:103F8000E18D401A81B2E08D0028F7D00029F5D0EC
:103F900020680C3050E8002F22F4907240E800278F
:103FA000002FF5D12068143050E8002F22F00102D4
:103FB00040E80027002FF5D184F8423025632068BF
:103FC0000C3050E8002F00E006E022F0100240E83C
:103FD0000023002BF3D1CDE705062BD5150629D5F7
:103FE00094F841002128C9D1A068B0F5805F01D1C3
:103FF0002069B0B1206A411C2162216800784860C4
:10400000E08C401E0004000CE084B7D12068C16839
:1040100021F08001C1602068C16841F04001C160A9
:10402000F8BD206A0088C0F308004860206A801C40
:104030002062E5E74006F3D55006F1D5CA68204670
:1040400022F04002CA6084F8413000F0BDF9F8BDAA
:104050008B50000870B5040023D0A0693B490028AC
:104060003B4A3C4B3C4D20681DD088420CD09042CE
:104070000AD0984208D0A84206D040F2731137A067
:1040800001F039FEA06908B3A069B0F5807F1DD0AA
:10409000B0F5007F1AD0B0F5407F17D04FF4BA7159
:1040A00011E0012070BD884210D090420ED098429D
:1040B0000CD03949884209D03849884206D0A842F4
:1040C00004D04FF4BC7125A001F015FEA06838B1F2
:1040D000B0F5805F04D04FF4BD7120A001F00BFE5D
:1040E000E06938B1B0F5004F04D040F27B111BA05D
:1040F00001F001FE94F84100002520B984F84050F9
:10410000204600F04DF8242084F841002068C16862
:1041100021F40051C160204601F046F82068016991
:1041200021F4904101612068416921F02A01416137
:104130002068C16841F40051C1606564202084F8A2
:10414000410084F842006563002070BD001001400A
:104150000044004000480040001401402E2E2F442F
:104160007269766572732F53544D333246347878C2
:104170005F48414C5F4472697665722F5372632FBA
:1041800073746D3332663478785F68616C5F756123
:1041900072742E6300000000004C0040005000408C
:1041A0002DE9F04186B0064614216846FCF742F836
:1041B000424F316842480222032307250024B942B6
:1041C00021D13F4914310E6846F010060E6009688F
:1041D00001F010010591016841F0010101600068E2
:1041E000694600F00100059058028DE81500CDE900
:1041F00003353448FDF79EFF002211462520FEF7C7
:10420000DFF9252054E0304FB94253D12C49103109
:104210000F6847F480270F60096801F48021059139
:10422000016841F0020101600068694600F0020087
:1042300005904FF440608DE81500CDE90335234823
:10424000FDF778FF234D22484FF000672860C5E94D
:1042500001744FF48068C5E903486C61AC61EC619E
:104260002C6228466C62FDF78FFD08B1FCF787FCD5
:10427000F563AE63174D164860353030E5E8020748
:104280004020A5E81101134845F814496030AC619D
:10429000EC612C626C62FDF777FD08B1FCF76FFCF6
:1042A000B563002211462720AE63FEF789F9272067
:1042B000FEF754F906B0BDE8F0810000001001409F
:1042C0003038024000000240004800400004024034
:1042D000286002401404002090F84230202B01D0C6
:1042E0000220704721B11AB10023036301F02CB8FA
:1042F0000120704710B50068084988420DD14FF47D
:104300007A7301220649074800F00EF8BDE8104014
:10431000012203490348FFF7DFBF10BD0010014031
:1043200008000020840300202DE9F843044690F89B
:104330004100984616460D46202802D00220BDE8CE
:10434000F88385B17EB100206064212084F84100AB
:10435000FEF7A4F8A6848146E684A0682027B0F57D
:10436000805F02D003E00120E9E7206910B12E460A
:1043700000250EE000260CE08021204600F0FFFF23
:10438000A8B9C6B116F8010B21684860E08C401E40
:10439000E084E08C4B464FF00002CDF8008000280E
:1043A000EAD14FF04001204600F0E9FF40B184F827
:1043B00041700320C3E735F8020BC0F30800E3E7C0
:1043C00084F841700020BAE77047FEE770B590B0FE
:1043D00000240D940E940C94089409940A942021BE
:1043E00068460B94FBF726FF24482349012501600A
:1043F0004FF48031C0E901140461047680F8204054
:104400000903C162C5614FF0C061C460816280F878
:1044100030504561FDF7FEF808B1FCF7B0FB02260D
:10442000B0030C96CDE90D040CA91448FCF75CFF11
:1044300008B1FCF7A4FB0896CDE9095408A90F4878
:10444000FCF7FEFF08B1FCF79AFBCDE900650C48CC
:104450000294CDE906048DF8154004958DF81440BA
:10446000694606480394FCF793FD002801D0FCF749
:1044700086FB10B070BD000000200140200000202D
:1044800001000F007FB500241448009401940294A9
:104490001149039401604FF48031C0E901140461B3
:1044A000047680F820400125C561C46080F8304062
:1044B0004561FDF7AFF808B1FCF761FB0320CDE9DA
:1044C0000005694602940548FCF7BAFF002801D0B0
:1044D000FCF755FB7FBD0000002101406800002073
:1044E0007FB5002416480094019402941349039464
:1044F00001604FF48031C0E901140461047680F852
:1045000020400903C1620125C5614910C460816270
:1045100080F830404561FDF77DF808B1FCF72FFBCE
:104520000620CDE90005694602940548FCF788FF9E
:10453000002801D0FCF723FB7FBD000000220140D2
:10454000B00000201CB50024104900940E480194CE
:1045500008600846FDF780FA08B1FCF710FB0094EC
:104560000022694609480194FDF706FA08B1FCF7F4
:1045700006FB102269460548FDF7FEF9002801D028
:10458000FCF7FDFA1CBD000000740040B8010020DB
:10459000194808B5016841F400110160016801F48F
:1045A00000110091016841F480010160006800225F
:1045B00000F48000009011460C20FEF701F80C205A
:1045C000FDF7CCFF002211460E20FDF7F9FF0E206B
:1045D000FDF7C4FF002211463820FDF7F1FF382017
:1045E000FDF7BCFF002211463920FDF7E9FFBDE8C9
:1045F00008403920FDF7B2BF3038024000B587B01F
:104600001C216846FBF716FE16484FF02041102289
:10461000016015494160062181600021C160C0E947
:1046200004128161C16113020162C0E90913C16210
:1046300001634163816341640F200090019002ABEC
:10464000182083E807001120CDE905010022694602
:104650000448FEF70FFC002801D0FCF790FA07B0E1
:1046600000BD0000CC010020040100A02DE9F043B2
:1046700087B014216846FBF7DDFD6048002401681F
:1046800041F010010160016801F01001059101681D
:1046900041F004010160016801F004010591016825
:1046A00041F020010160016801F0200105910168DD
:1046B00041F080010160016801F08001059101680D
:1046C00041F001010160016801F0010105910168FB
:1046D00041F002010160016801F0020105910168E9
:1046E00041F040010160016801F04001059101685D
:1046F00041F0080101600068DFF8048100F0080063
:104700000590002207214046FDF792FEDFF8F49065
:10471000002249F2F7014846FDF78AFE7F20032573
:10472000CDE90005694602943748FDF703FD4FF6D1
:10473000F870CDE90005694602944046FDF7FAFCA1
:104740004EF6FF60CDE90005694602942F48FDF75B
:10475000F1FC052001260227CDE90006CDE902473C
:1047600069464046FDF7E6FC0097CDE901646946DD
:1047700040460394FDF7DEFC49F6C110CDE9000583
:10478000694602942248FDF7D5FC41F2F300CDE9D9
:104790000006CDE9024769464846FDF7CBFC48F2E2
:1047A00004000090CDE90164694648460394FDF792
:1047B000C1FC4EF6FF70CDE900056946029415482C
:1047C000FDF7B8FC46F20800CDE900056946029401
:1047D0004846FDF7AFFC42F6CC00CDE9000569463E
:1047E00002940D48FDF7A6FC28028DE851006946A9
:1047F0004846FDF79FFC07B0BDE8F0833038024023
:104800000008024000040240001002400014024070
:104810000000024000180240000C024010B586B0B3
:1048200000241748009401940294039404944FF0D8
:104830008041059401605321C0E901143121C0E990
:10484000031480218161FEF703FC08B1FCF797F99E
:104850004FF48050009069460948FEF71FFD08B1EB
:10486000FCF78DF92020CDE9040404A90448FEF7E3
:1048700047FB002801D0FCF782F906B010BD00000C
:104880001C02002010B586B0002417480094019443
:104890000294039404941349059401602221C0E911
:1048A00001143121C0E903148461FEF7D1FB08B182
:1048B000FCF765F94FF48050009069460A48FEF70E
:1048C000EDFC08B1FCF75BF92020CDE9040404A954
:1048D0000548FEF715FB002801D0FCF750F906B09B
:1048E00010BD0000000400406402002010B590B02C
:1048F000002409940A940B94142104A80C94FBF747
:1049000099FC2C480D940E9400940194029428492B
:104910000394016042F2CF01C0E901146321C0E9B0
:1049200003148461FEF794FB08B1FCF728F94FF4F7
:104930008050099009A91F48FEF7B0FC08B1FCF7A8
:104940001EF91C48FFF710F808B1FCF718F904200D
:1049500004905020CDE9050404A916480894FFF7F7
:104960009BF908B1FCF70BF90D940DA911480E94B1
:10497000FEF7C6FA08B1FCF702F90120CDE90040C4
:104980000294002269460B480394FEF791FE08B199
:10499000FCF7F5F8022000900190042269460548D2
:1049A000FEF786FE002801D0FCF7E9F810B010BD34
:1049B00000080040AC02002010B586B00024174863
:1049C0000594049400940194029413490394C0E95B
:1049D0000014611EC0E9024104618461FEF7C4FF56
:1049E00008B1FCF7CCF8049404A90C480594FEF730
:1049F00087FA08B1FCF7C3F80120CDE90040029422
:104A00000422694605480394FEF752FE002801D0AF
:104A1000FCF7B5F806B010BD000C0040F402002011
:104A200010B586B0002417480094019402940394B2
:104A3000049413490594C0E900145321C0E90241CC
:104A400080210461C0E90541FEF702FB08B1FCF7D3
:104A500096F84FF48050009069460A48FEF71EFC15
:104A600008B1FCF78CF82020CDE9040404A905481E
:104A7000FEF746FA002801D0FCF781F806B010BD19
:104A8000000401403C0300200E4810B50C490160B1
:104A90004FF4E1314160002181600C22C160C0E926
:104AA00004128161C161FFF7D5FA08B1FCF767F81C
:104AB000BDE81040012204490248FFF70DBC000088
:104AC0000010014084030020080000200C4810B5AD
:104AD0000A4901604FF416514160002181600C22A7
:104AE000C160C0E904128161C161FFF7B3FA002817
:104AF00003D0BDE81040FCF742B810BD00480040AC
:104B0000CC030020FEE7FEE770477047FDF7CCBC02
:104B100030B593B030216846FBF78CFB14210CA80C
:104B2000FBF788FB1D480025016841F080510160BA
:104B3000006800F0805011901948016841F48041EC
:104B400001600068022400F480401190012003906D
:104B500010200490009406940820CDE90750A82066
:104B6000CDE9090404200B906846FDF72FFF08B13A
:104B700072B6FEE70CA90F2081E831004FF4A05077
:104B80000F904FF48050109005210CA8FDF7A8FD60
:104B9000002801D072B6FEE713B030BD40380240A5
:104BA000007000400248016841F4700101607047E4
:104BB00088ED00E00148FEF7D3BF0000AC02002002
:104BC000F0B50268274B284D284E294F294C4FF04D
:104BD000804C984209D0604507D0A84205D0B04229
:104BE00003D0B84201D0A04204D122F0700E4A682E
:104BF00042EA0E0298421BD0604519D0A84217D055
:104C0000B04215D0B84213D0A04211D01A4DA842DC
:104C10000ED01A4DA8420BD0194DA84208D0194DFC
:104C2000A84205D0184DA84202D0184DA84203D181
:104C300022F44075CA682A434D6922F080022A4353
:104C40008D68C5620D688562984201D0A04201D18D
:104C500009690163016841F00401016001214161BA
:104C60000260F0BD00000140000400400008004068
:104C7000000C00400004014000400140004401409D
:104C80000048014000180040001C00400020004087
:104C900010B5846842EA032224F47F440A43224385
:104CA000826010BD826822F070020A4342F0070160
:104CB000816070472DE9F84F054600200C460090B2
:104CC0002968886820F070026068104320F00702AD
:104CD000206810438860606810F00F0F7ED10011CB
:104CE0009149924A924B934E934FDFF850C2DFF8AE
:104CF0005092DFF850E24FF0804A4FF4004B082802
:104D00006CD2DFE800F0F6F6F6F64688C4042868B0
:104D1000884212D0504510D090420ED098420CD00C
:104D2000B0420AD0B84208D0604506D0484504D009
:104D300041F6EB3184A000F0DEFFE06868B1B0F529
:104D4000805F0AD0B0F5005F07D0B0F5405F04D0B7
:104D500041F6EC317CA000F0CEFFA068584509D0A8
:104D600040B1022806D00A2804D041F6ED3176A0E1
:104D700000F0C1FF20690F2804D941F6EE3172A07E
:104D800000F0B9FFD4E9022123692868FFF780FF0A
:104D9000C8E0286888421DD050451BD0904219D0E9
:104DA000984217D0B04215D0B84213D0604511D008
:104DB00070450FD0724988420CD048450AD07149DD
:104DC000884207D07049884204D041F6FA315EA08B
:104DD00000F091FF20690F2806D900E0A0E041F61D
:104DE000FB3159A000F087FF2068052810D0286803
:104DF000016A026A22F0010202622868826923695C
:104E000022F0F00242EA031282612868016289E01E
:104E10000120BDE8F88F286888421DD050451BD07E
:104E2000904219D0984217D0B04215D0B84213D052
:104E3000604511D070450FD0514988420CD048458B
:104E40000AD05049884207D04F49884204D041F6E1
:104E500014413DA000F04FFFA068584509D040B173
:104E6000022806D00A2804D041F6154136A000F0E9
:104E700042FF20690F2804D941F6164132A000F004
:104E80003AFF2269A168286800F080F84AE02868A3
:104E9000884212D0504510D090420ED098420CD08B
:104EA000B0420AD0B84208D0604506D0484504D088
:104EB00041F6224124A000F01EFFA068584509D009
:104EC00040B1022806D00A2804D041F623411EA092
:104ED00000F011FF20690F2804D941F624411AA0DF
:104EE00000F009FF2269A168286800F0A1F819E024
:104EF000FFE72868884215D0504513D0904211D062
:104F000098420FD0B0420DD0B8420BD0604509D0C6
:104F1000484507D041F633410BA000F0ECFE01E01C
:104F200001200090009874E7000001400004004058
:104F300000080040000C0040000401400040014017
:104F400000180040004401402E2E2F4472697665FF
:104F500072732F53544D3332463478785F48414C46
:104F60005F4472697665722F5372632F73746D3369
:104F700032663478785F68616C5F74696D2E6300A7
:104F800000480140001C00400020004010B5036AAA
:104F9000046A24F001040462846924F0F00444EA01
:104FA000021423F00A020A438461026210BD000069
:104FB00070B5056A046A24F0010404628469154E20
:104FC000B04214D0B0F1804F11D0134EB0420ED089
:104FD000124EB0420BD0124EB04208D0114EB04229
:104FE00005D0114EB04202D0104EB04203D124F091
:104FF0000304144301E044F001041A0724F0F00410
:1050000044EA126225F00A0301F00A0119438261A1
:10501000016270BD00000140000400400008004033
:10502000000C004000040140004001400018004016
:1050300010B5036A046A24F010040462846923F042
:10504000A00324F4704444EA023243EA011182616D
:10505000016210BD30B5046A056A25F010050562CD
:10506000856925F4407545EA022222F470454FF621
:10507000FF7202EA033224F0A0032A43A02404EAC8
:10508000011119438261016230BD10B5806B0021AE
:10509000C185FEF79DFE10BD01680C3151E8002F5F
:1050A00022F4907241E80023002BF5D101681431FD
:1050B00051E8002F22F0010241E80023002BF5D136
:1050C000016B012909D101680C3151E8002F22F050
:1050D000100241E80023002BF5D1202180F8421076
:1050E00000210163704708B590F84210222901D0D1
:1050F000022008BD82684FF480539A4201D10169B1
:1051000021B1816A9A421BD04AB10AE00268816AE1
:105110005268C2F308020A80816A891C08E00269A9
:1051200072B10268526802F07F020A70816A491CFB
:105130008162C18D491E0904090CC18503D01BE0A1
:1051400002685268F1E70168CA6822F02002CA606A
:105150000168CA6822F48072CA6001684A6922F054
:1051600001024A61202180F8421000214163026B54
:10517000012A03D0FFF7BEF8002008BD01630168D3
:105180000C3151E8002F22F0100241E80023002BDF
:10519000F5D101680A68D20602D50A68496800910B
:1051A000818DFEF714FEE7E770B504464068544968
:1051B000884204D940F6996152A000F09CFDE06855
:1051C00038B1B0F5005F04D040F69A614DA000F010
:1051D00092FD206950B1B0F5806F07D0B0F5C06F77
:1051E00004D040F69B6147A000F085FD60694FF652
:1051F000F371084200D120B940F69C6141A000F053
:105200007AFD20680169E26821F44051114301618F
:105210002169A068E2690843616911432268084373
:10522000D16849F20C6399430143D1602068416918
:10523000A26921F4407111434161414920688842CB
:1052400002D04049884202D1FDF780FB01E0FDF722
:105250006DFBE2690023192164253226B2F5004F67
:10526000626828D0A0FB0101930F9200FAF7AAFF11
:105270000146B0FBF5F06FF01802504301EB8000DF
:1052800006EB0010B0FBF5F000F0F002B1FBF5F01A
:1052900002EB0012B1FBF5F06FF01803584301EB7D
:1052A000800006EB0010B0FBF5F000F00F00216865
:1052B0001044886070BDA0FB010192185B41FAF7B1
:1052C00081FF0146B0FBF5F00201B1FBF5F06FF094
:1052D0001803584301EB800006EBC000B0FBF5F06B
:1052E00000F0F80002EB4002B1FBF5F0584301EB8F
:1052F000800006EBC000B0FBF5F000F00700D6E739
:10530000A037A0002E2E2F447269766572732F533A
:10531000544D3332463478785F48414C5F4472696B
:105320007665722F5372632F73746D3332663478DF
:10533000785F68616C5F756172742E6300000000B5
:10534000001001400014014081628285C285002165
:105350004164222180F84210016921B10168CA68C4
:1053600042F48072CA6001684A6942F001024A61EF
:105370000068C16841F02001C160002070472DE93C
:10538000F843984617460D460446089E24E0701CD4
:1053900022D0FDF783F8A0EB0800B0421AD8CEB1B6
:1053A0002068C168490717D5802D15D0402D13D02E
:1053B0000168C94309070FD40168002540680090BF
:1053C0002046FFF769FE0820606484F84050012001
:1053D000BDE8F8830320FBE72068006835EA000099
:1053E00004D00020B842D2D00020F1E70120F9E734
:1053F0000148FEF7EFBC0000840300200148FEF7DF
:10540000E9BC0000CC030020FEE700000FB4054B10
:1054100010B503A9044A029800F0EAF810BC5DF840
:1054200014FB0000F95C00081C0000200907090EAD
:10543000002804DB00F1E02080F80014704700F041
:105440000F0000F1E02080F8141D704702E008C84A
:10545000121F08C1002AFAD170477047002001E0EE
:1054600001C1121F002AFBD1704700002DE9FF5F28
:1054700082B00021DDE90430020DDDF840B00343C5
:1054800018D044F61050A2F2FF324243151411987E
:1054900001281FD0A5EB0B00401C5FEA000A4FF06B
:1054A00000064E4FDFF83891B046504615D5CAF188
:1054B000000413E0119801244AA3012801D16FEAE6
:1054C0000B010298119AC0E90031C0E9024206B00E
:1054D000BDE8F09FCBF10000DFE704460021404A21
:1054E000491842EB0450CDE9001012E0E00707D064
:1054F00032463B4640464946FAF7A7FE8046894673
:1055000032463B4610461946FAF79FFE06460F46BE
:105510006410002CEAD1DDE90401DDE90023BAF1D1
:10552000000F06DAFAF791FE42464B46FAF78DFE77
:1055300005E0FAF7FCFE42464B46FAF7F8FE044651
:105540000E460022284BFBF7DFF803D84FF0FF3060
:10555000014607E00022254B20463146FBF714F8B0
:10556000FBF7B9F8102409E0002C0ADB0A2200231B
:10557000FAF728FE039B30321A55641E50EA0102E6
:10558000F2D1641C039AC4F111031444119A012A44
:1055900003D0012208430DD10AE0084304D00020C3
:1055A0004FF0110B119072E7A3EB0B056D1E0DE090
:1055B0005B4504DD4FF0000205F1010504E003DA6C
:1055C0004FF00002A5F10105002AECD002981199D4
:1055D000C0E90231C0E9004579E70000000014404D
:1055E0000000F03F300000000000F0430000E03F0A
:1055F0002DE9FF4F95B09A46884606460025EEE114
:10560000252877D100242746F94A0121039400E098
:10561000044316F8013F203B01FA03F01042F7D192
:1056200030782A2811D06FF02F033078A0F13002A3
:10563000092A16D8039A44F0020402EB820203EB13
:1056400042021044761C0390EFE758F8042B0392B3
:10565000002A03DA504244F40054039044F0020458
:10566000761C30782E2816D116F8010F44F0040469
:105670002A280DD06FF02F023078A0F13003092BCB
:1056800009D807EB870302EB4303C718761CF3E73F
:1056900058F8047B761C30786C280FD006DC4C2838
:1056A00017D068280DD06A2814D104E0742810D0CF
:1056B0007A280FD10DE044F400140AE044F4801479
:1056C00001E044F440147278824202D104F580145F
:1056D000761C761C307866280BD013DC582877D0DF
:1056E00009DC002875D04528F6D04628F4D0472894
:1056F0001AD193E118E0632835D0642879D0652861
:1057000012D18BE1702873D008DC6728F1D06928AA
:105710006FD06E280DD06F2806D1ACE073282CD046
:10572000752874D0782853D05246179990476D1C2D
:1057300054E1C4F30250022809D003280DD0D8F850
:10574000001004280DD00D6008F1040846E1D8F8D7
:105750000010EA17C1E90052F6E7D8F800100D80F2
:10576000F2E70D70F0E718F8041B8DF80010002028
:105770008DF80100EB46012003E058F804BB4FF020
:10578000FF3061074FF0000102D40DE009F1010183
:105790008946B9420FDA8145F8DB1BF80910002968
:1057A000F4D108E009F1010189468142FADB1BF8D6
:1057B00009100029F6D103985346A0EB09072146AA
:1057C0003846179A00F080FA284400EB090507E0F4
:1057D00044E008E10DE01BF8010B52461799904791
:1057E000B9F10109F7D2534621463846179AF2E03B
:1057F00039E00A21C4F302524FF0000B0091022A53
:1058000006D058F8040BC117032A09D00AE023E098
:1058100008F1070020F00702F2E80201904605E0D7
:1058200000B2C117042A01D140B2C117002906DA1B
:105830000A460021404261EB02012D2202E02205CE
:1058400004D52B228DF80420012203E0E20701D0C9
:105850002022F7E7914657E00A2100E010214FF09F
:10586000000B00910BE010214FF0000B44F00404FA
:105870000827009103E008204FF0000B0090C4F3CC
:105880000252022A05D058F8040B0021032A08D03E
:1058900008E008F1070020F00702F2E80201904654
:1058A00003E080B2042A00D1C0B24FF00009220701
:1058B0002AD53278702A07D0DDF800C08CF0100CA1
:1058C0005CEA0B0C05D00EE040228DF8042001228A
:1058D00008E050EA010306D030238DF804308DF83B
:1058E000052002229146009B83F0080353EA0B0334
:1058F0000AD150EA010201D1620705D530228DF8A4
:1059000004204FF001097F1E3278582A04D039A2B2
:105910000C920CAA02920BE03BA2F9E75B46009ABC
:10592000FAF750FC0C9B9B5C029A521E0292137079
:1059300050EA0102F2D1029804A9081A00F1200BE2
:10594000600702D524F4803400E001275F4502DDC2
:10595000A7EB0B0000E0002000EB0B010090039888
:105960004944401A0390E00306D453462146179A4F
:10597000039800F0A9F90544002706E001A8524663
:10598000C05D179990476D1C7F1C4F45F6DBE00307
:105990000CD553462146179A039800F095F9054413
:1059A00004E030205246179990476D1C0099481E1C
:1059B00000900029F5DC08E0029802995246007830
:1059C000491C0291179990476D1CBBF10001ABF186
:1059D000010BF1DC5BE100F065F90544761C3078E1
:1059E00000287FF40DAE19B02846BDE8F08F000006
:1059F00009280100303132333435363738396162A5
:105A00006364656600000000303132333435363768
:105A1000383941424344454600000000600700D445
:105A2000062708F1070020F00700F0E8022380466F
:105A300003F0004C5FEA0C0001D097A009E02005BC
:105A400001D596A005E0E00701D095A001E0AFF2F6
:105A50004C001390307823F0004365280CD006DC0E
:105A6000452809D046281DD047287FD13BE066282D
:105A700018D067287AD136E00021112F01DB1120E0
:105A800000E0781CCDE9000104A90CA8FFF7EEFCAA
:105A9000DDE90D010C9A4FF0000B07F1010910929E
:105AA00000914EE04FF000400097CDE9011004A9AD
:105AB0000CA8FFF7DBFCDDE90D020C9B0F994FF002
:105AC000000B91461093009211B9791C00EB01096B
:105AD000B7EB090003D4C0F1FF3B07F10109A9EBC3
