:020000040800F2
:10000000D0A00020A1010008AB770008FD6B00081C
:10001000A977000861280008AD8E000800000000E4
:100020000000000000000000000000002D7D00081E
:10003000C129000800000000557A0008C9820008A4
:10004000BB010008BB010008BB010008BB010008A0
:10005000BB010008BB010008BB010008BB01000890
:10006000BB010008BB010008BB010008BB01000880
:10007000ED280008BB010008F9280008BB010008B2
:10008000BB010008BB010008BB010008BB01000860
:10009000BB010008BB010008BB010008BB01000850
:1000A000BB010008BB010008BB010008BB01000840
:1000B000BB010008BB01000871830008BB010008F8
:1000C000BB010008BB010008BB010008BB01000820
:1000D000BB0100084D8E0008BB010008598E0008C6
:1000E000BB010008BB010008BB010008BB01000800
:1000F000BB010008BB010008BB010008BB010008F0
:10010000BB010008BB010008BB010008BB010008DF
:10011000BB010008BB010008BB010008BB010008CF
:100120000529000811290008BB010008BB010008CF
:10013000BB010008BB010008BB010008BB010008AF
:10014000BB010008BB010008BB010008BB0100089F
:10015000BB010008BB010008BB010008BB0100088F
:10016000BB010008BB010008BB010008BB0100087F
:10017000BB010008BB010008BB0100080000000033
:10018000BB010008BB010008DFF810D000F008FE3A
:10019000004800477D9D0008AFF30080D0A00020FC
:1001A0000648804706480047FEE7FEE7FEE7FEE711
:1001B000FEE7FEE7FEE7FEE7FEE7FEE761830008F5
:1001C000890100082DE9F05F0546002092469B4614
:1001D00088460646814640241BE02846414647465D
:1001E000224600F012FC53465A46C01A914110D3E1
:1001F00011461846224600F0F9FB2D1A67EB01085C
:100200004F4622460120002100F0F0FB17EB0009C9
:100210004E41201EA4F10104DFDC484631462A4647
:100220004346BDE8F09F40EA01039B0703D009E085
:1002300008C9121F08C0042AFAD203E011F8013BD2
:1002400000F8013B521EF9D27047D2B201E000F82B
:10025000012B491EFBD270470022F6E710B513466A
:100260000A4604461946FFF7F0FF204610BD00007D
:100270000FB400B58DB010A909900B9000914FF00C
:10028000FF300A9000200C90054806900548079022
:100290006A4609A80F9900F0DDFB0DB05DF814FB6C
:1002A000710A00088F0A00082DE9FF5F1D464FF014
:1002B000FF3BD5E9014691465F464FF00008A9692A
:1002C0007F1C01988847296A824688470028F6D112
:1002D000BAF1FF3F0CD024F4C064002E19DD600693
:1002E00014D5BAF12B0F09D0BAF12D0F0ED103E0BE
:1002F000584604B0BDE8F09F44F48064A9697F1CAF
:1003000001988847761E8246002E02DDBAF1300F32
:1003100003D0B9F1000F26D032E0A969761E44F46B
:1003200000747F1C019888478246002E05DDBAF1D3
:10033000780F06D0BAF1580F03D0B9F1000F10D0E2
:100340001EE0B9F1000F02D0B9F1100F18D1A96960
:10035000761E24F400747F1C019888478246102082
:1003600002E0082000E00A20814609E008FB0908B5
:10037000A969761E44F400747F1C01988847824660
:10038000002E05DD4946504600F04FFB0028EDDA0F
:10039000E96901988847A00502D46FF00100A8E739
:1003A000E00725D1600613D5600502D5C8F100002D
:1003B00000E0404629680A1D2A600968220501D527
:1003C000087015E0220701D5088011E008600FE0F1
:1003D0002868011D29600068210502D580F8008089
:1003E00006E0210702D5A0F8008001E0C0F80080F7
:1003F00038467EE72DE9FF4F087883B09946FF28FD
:1004000005D0491C2D2804D00024002008E000203D
:100410000BE00124F9E700EB800003EB4000491CEE
:100420000B78FF2BF7D104B14042002302931478DC
:1004300019461D462D2C01D02B2C04D1521C2D2CDD
:1004400013D000240294AA461478FF2C0FD00A255A
:10045000A3FB057801FB05814FF0000C03FB0C1199
:10046000521CE3194AEB0101EEE70124EAE781445B
:1004700053EA010002D019F5C87F06DA039800217B
:10048000C0E9001107B0BDE8F08F0025AE4E2F4641
:10049000DFF8B882184600F046FCCDE90001B9F15A
:1004A000000002DAC9F1000400E004460023A74A74
:1004B0001AEB030B42EB045A12E0E00707D02A467E
:1004C00033463846414600F045F9074688462A46F5
:1004D00033461046194600F03DF905460E466410B5
:1004E000002CEAD1DDE90001B9F1000F5A4653466C
:1004F00006DA00F0A1F93A46434600F09DF905E01E
:1005000000F028F93A46434600F024F9029A0AB16D
:1005100081F00041039AC2E90001B3E72DE9FF4FE2
:100520001F468DB0D7E901464FF0FF382E204546D3
:100530004FF000090B90B9696D1C0E988847396A15
:10054000824688470028F6D1BAF1FF3F0AD024F44A
:10055000D064002E11DDBAF12B0F08D0BAF12D0FA7
:100560000BD102E0404611B08DE744F48064B969D4
:100570006D1C0E9888478246761E6946600501D537
:100580002D2000E02B208DF8000001F1010B0DF172
:10059000200809E0B9696D1C0E98884782460F98BB
:1005A00044F40074761E0560002E02DDBAF1300FAF
:1005B000F0D00B998A453ED144F0800406E00F99B3
:1005C000681CA9F1010944F400740860B9696D1C44
:1005D000761E0E98884782463028F0D02BE00B9983
:1005E0008A4505D1200603D444F08004761E18E025
:1005F000504608F0E9FE08B30DF11301761E44F4ED
:1006000000748B4508D2AAF130000BF8010B2006CC
:1006100007D5A9F1010003E0200602D409F1010089
:100620008146A00502D50F99681C0860B9696D1C48
:100630000E9888478246002ED1DC53E0002E51DD13
:10064000BAF1650F02D0BAF1450F4BD1A00549D5DB
:10065000B9696D1C24F44074761E0E988847824652
:10066000002E0CDD2B2804D0BAF12D0F07D144F455
:100670008074B9696D1C0E9888478246761EE00525
:1006800001D52D2100E02B2108F8011BCDF82C808D
:1006900021E00DF12901761E44F4007488450CD246
:1006A000AAF1300010F0FF0088F8000002D10B9989
:1006B000884509D908F1010806E0E00501D524487C
:1006C00001E042F20F708146B9696D1C0E988847AF
:1006D00082460F980560002E04DD504608F074FE37
:1006E0000028D6D1F9690E988847FF208BF80000C2
:1006F00088F800000020069007904B466A4608A93B
:1007000006A8FFF777FEA00502D46FF001002AE7E4
:1007100014F0240F0AD0E00714D1DDE9061238687E
:10072000031D3B600068C0E900120BE0DDE9060133
:1007300000F02AF90146E00704D13868021D3A604A
:100740000068016028460EE7000014400000F03FFA
:10075000F1D8FFFF2DE9FE4F81EA030404F00044C5
:1007600021F0004100944FF0000B23F0004350EAC9
:1007700001045ED052EA03045BD0C3F30A54C1F310
:100780000A552C44A4F2F3340194A0FB0254C1F3A3
:10079000130141F48011C3F3130343F4801301FBED
:1007A000024400FB034E840A970A44EA815447EA54
:1007B0008357A4FB076802958D0A05FB07854FEA5E
:1007C000932C04FB0C542705029D4FEA065847EA78
:1007D0001637B5EB08056EEB070C870E920E47EA4D
:1007E000811742EA8312A7FB0201B6EB0B0164EB0F
:1007F00000042B0D43EA0C335E1844EB1C50DA4620
:100800005146E7FB0201C5F313044FEA0B3343EAF9
:1008100014534FEA0432019C43EA0603A4F10C048A
:100820000294009CCDE900B400F088F903B0BDE863
:10083000F08F00200146F9E72DE9F04D81EA03042D
:1008400004F0004B21F0004514464FF0000A23F05D
:10085000004150EA050220D054EA01021DD0C5F340
:100860000A570246C5F31303C1F31300C1F30A5636
:1008700040F4801543F48013A7EB0608101BD646FE
:1008800008F2FD3873EB050002D308F1010801E01E
:1008900092185B41B8F1000F03DA00200146BDE871
:1008A000F08D00204FF48011064684460EE0171BA1
:1008B00073EB050705D3121B63EB050306434CEAF4
:1008C000010C49084FEA300092185B4150EA0107D9
:1008D000EDD152EA030012D082EA040083EA050156
:1008E000084305D0101BAB4106D20122002306E0CD
:1008F00000224FF0004302E06FF0010253101AEBA8
:1009000006004CEB085110EB0A0041EB0B01BDE86F
:10091000F04D00F004B90EB540F2334102910021D0
:10092000CDE900110A460B4600F008F903B000BDFE
:10093000C1F30A5210B5C1F3130140F2FF3341F481
:1009400080119A4201DA002010BD40F233439A42EE
:10095000A2F2334203DC524200F057F810BD90403F
:1009600010BD00F0004230F000400AD0C10D01F58A
:100970006071C0F3160042EA0151C20840071143FA
:10098000704700200146704701F0004330B421F069
:10099000004150EA010206D00A0DA2F56072C1F3CF
:1009A0001301002A02DC30BC00207047440F44EAE7
:1009B000C104C100E01830BC00EBC25000F078B8B0
:1009C00030B50B46014600202022012409E021FA1F
:1009D00002F59D4205D303FA02F5491B04FA02F51C
:1009E0002844151EA2F10102F1DC30BD202A04DBEF
:1009F000203A00FA02F1002070479140C2F1200332
:100A000020FA03F3194390407047202A04DB203A70
:100A100021FA02F00021704721FA02F3D040C2F11E
:100A2000200291400843194670473A2800D23038D6
:100A300020F02002412A01D3A2F13700884201D3DD
:100A40004FF0FF30704700000268114413780160D6
:100A500018467047D1600449516104491162002170
:100A60001161114600F0C6B9490A0008E90D0008F5
:100A7000426842B1016811F8013B23B1521EC0E93E
:100A80000012184670470121C160881E70474268F5
:100A90005AB1C368016843B983688B4205D0491EC7
:100AA000521CC0E90012002070474FF0FF30704721
:100AB0000029A8BF7047401C490008BF20F0010072
:100AC000704710B4B0FA80FC00FA0CF050EA010450
:100AD00004BF10BC704749B1CCF1200421FA04F4E2
:100AE00011FA0CF118BF012121430843A3EB0C01BB
:100AF000CB1D4FEA00614FEA102042BF002010BC1E
:100B0000704700EBC35010440029A4BF10BC7047CD
:100B1000401C490008BF20F0010010BC704710B510
:100B2000141E73F1000408DA401C41F10001921810
:100B30005B411A4301D120F0010010BD2DE9F04DB9
:100B400092469B4611B1B1FA81F202E0B0FA80F20E
:100B500020329046FFF74AFF04460F4640EA0A005B
:100B600041EA0B0153465A46084313D0114653EA53
:100B7000010019D0C8F140025046FFF746FF054674
:100B80000E46504659464246FFF730FF084305D00F
:100B9000012004E020463946BDE8F08D00200543E1
:100BA00046EAE0762C4337430A986305E40AA0EB53
:100BB00008000022FD0A44EA47540A3002D500200A
:100BC0000146E9E7010510196941DDE90845001909
:100BD0006941BDE8F04DA2E72DE9FE4F804681EA6C
:100BE0000300C00F0C46009021F0004123F00045A7
:100BF000B8EB0200A94105D24046214690461C466A
:100C00000B46024623F00040104347D0270DC7F3A0
:100C10000A00C3F30A510290401A019040286BDA8F
:100C2000C3F3130040F4801B0098924620B10023C8
:100C3000D2EB030A63EB0B0B01985946C0F140025B
:100C40005046FFF7D3FE06460D4650465946019AD8
:100C500000F0B8F810EB08006141002487EA115257
:100C600084EAE7731A4340D0009A62B3019A012ADA
:100C70004FEA075215DC001B61EB02014FF0004206
:100C800002EA0752CDE90042001C41F580113246CC
:100C90002B46FFF753FF03B0BDE8F08F40462146D7
:100CA000F9E7001B61EB0201001C41F580130018FD
:100CB0005B412018A2F5001747EB030140EAD5700D
:100CC000B6196D4111E06D084FEA360645EAC07568
:100CD0004FEA0752001B61EB0201001C41F5801135
:100CE00049084FEA30000019514132462B4603B003
:100CF000BDE8F04FFFF713BF00980122400000232A
:100D0000D0EB020263EBE073009821464FEAE074F7
:100D1000B8EB000061EB0401E9E783F000435BE717
:100D200081F0004158E70EB540F2334202920022B2
:100D3000CDE900221346FFF701FF03B000BDC1F368
:100D40000A52C1F3130140F2FF3341F480119A4279
:100D500002DA00200146704740F233439A42A2F281
:100D6000334202DC5242FFF750BEFFF73FBE0000A5
:100D700030B5041E71F1000404DB4FF00044404222
:100D800064EB0101141E73F1000405DB1C464FF0F7
:100D90000043524263EB0403994208BF904230BDC6
:100DA000064C074D06E0E06840F0010394E80700B8
:100DB00098471034AC42F6D3FFF7EAF9C073020843
:100DC000E0730208202A06DBCB17203A41FA02F032
:100DD00043EAE07306E041FA02F3D040C2F1200298
:100DE0009140084319467047C0B24FF4F05100F0EB
:100DF00099B900002DE9F34F8BB04FF0000801F1D5
:100E00000C000C464FF0010B46460DF1080A01900C
:100E10006269012101989047051E2DD0252D2CD007
:100E2000216A8847C0B16269012101989047216A0F
:100E300088470028F7D1411E62690198904700E079
:100E4000761CA1690B988847216A88470028F7D14A
:100E5000E1690B988847DBE7A1690B98884707464B
:100E6000A84201D1761CD3E7E1690B9888477F1C23
:100E700002D1B8F1000F6FD047E1002762693D460B
:100E80003946019890472A2804D1626901210198C6
:100E900090470125DFF88892626901210198904707
:100EA000A0F130010A290AD24F45E5DC07EB8701A2
:100EB00000EB4107303FDFD445F01005ECE7E906D1
:100EC00001D46FF000476C280AD04C2814D0682851
:100ED00015D06A280DD074281CD07A281AD01DE0AD
:100EE00062690121019890476C2802D045F0040501
:100EF00014E045F002050DE045F020050AE06269C6
:100F0000012101989047682802D045F0080505E0C6
:100F100045F400656269012101989047C4E90157D1
:100F200065283DD019DC58287AD00CDC452837D00C
:100F300004DC252826D0412831D131E046282FD0A5
:100F400047282CD12CE05B2877D0612828D0632853
:100F50007CD0642823D15AE0D1E06F2848D008DC47
:100F600066281DD067281BD0692821D06E2816D18D
:100F700027E0702845D0732868D0752847D0782896
:100F80000DD14DE0A1690B988847054625283FF40F
:100F900069AFE1690B9888476D1C3FF46AAFB4E014
:100FA00023466A466FF001000B99FFF7B7FA9FE0FE
:100FB00045F040006060A80723464FF0000236D499
:100FC0003EE0E8077FF447AF2068011D216000681C
:100FD000290501D506701BE7290701D5068017E70B
:100FE000A90703D5F117C0E9006111E706600FE713
:100FF00045F040006060A80723464FF0080216D471
:101000001EE040F60E0125EA0100606016E045F0A2
:1010100040006060A80723464FF00A0207D40FE0A3
:1010200045F040006060A80708D5234610226FF005
:1010300001000B99AFF300805AE007E0234610222D
:101040006FF001000B99FFF72FF951E04FF0000905
:101050004F464B46632802D05B2807D041E02079F9
:10106000C00601D40120A06001273AE06269012195
:10107000019890475E2805D14FF001096269494601
:1010800001989047216939B900210A46534643F82F
:101090002120491C0829FADBB0B3216969B9C117BD
:1010A00000EBD16253110AEB830122F01F02821A76
:1010B00001200B68904003430B6062690121019895
:1010C00090475D28E8D1B9F1000F09D000205146C2
:1010D00051F82020D24341F82020401C0828F7DB9B
:1010E00002AB224600976FF001000B99AFF300802E
:1010F00000280CDA401C08D1BBF1000F05D04FF0DE
:10110000FF300DB0BDE8F08FFFE74046F9E7E90793
:1011100001D108F1010806444FF0000B78E6000009
:10112000CCCCCC0C7F2801D9002208E0064A02EB87
:101130005002C007127800D1120902F00F020120FC
:101140009040084070470000189F000830B58C1888
:1011500010F8012B12F00F0301D110F8013B120916
:1011600006D110F8012B03E010F8015B01F8015BD8
:101170005B1EF9D101E001F8013B521EFBD1A142F7
:10118000E6D3002030BD0000F0B5F1B1002300BF70
:1011900002EB430C32F813E0BCF802C02EF0030E51
:1011A0002CF0030C50F80E5050F80C6000EB0E04BD
:1011B00000EB0C0740F80E6040F80C507E68656844
:1011C00002338B4266607D60E2D3F0BD2DE9F041D1
:1011D0000488984616460746012A0D460CD1E4B30A
:1011E000281D214690ED000A0139B1EE400A80ED3C
:1011F000000A00F10800F5D1FF2C0CDDB4F5806F7A
:1012000010DBB4F5805F22D0B4F5006F11D0B4F5D7
:10121000806F17D021E03F2C10DC102C12D0202C36
:1012200007D01AE0B4F5807F03D0B4F5007F0ED06C
:1012300013E03846294600F05FF90EE0402C06D056
:10124000802C0AD13846294600F08AF805E07A68F1
:1012500028462146012300F055FCB8F1000F04D0C8
:10126000B989BA682846FFF78FFF012E1CD100EE1E
:10127000104A002CB8EE400A08BFBDE8F081B7EE76
:10128000001A81EE000A00BF95ED001A95ED012AC3
:1012900020EE011A22EE402A85ED001A85ED012A82
:1012A000013C05F10805EFD1BDE8F0810022426064
:1012B000FF294FF0FF0201800EDDB1F5806F16DBD4
:1012C00029D0B1F5805F2BD0B1F5006F46D14FF238
:1012D0006043C0F6000336E03F2913DC102924D018
:1012E00020293BD14FF28043C0F600032BE0B1F53B
:1012F000807F1FD0B1F5007F30D14FF2A043C0F600
:10130000000320E040291AD0802927D14FF2404322
:10131000C0F6000317E04FF23043C0F6000312E0BE
:101320004FF29043C0F600030DE04FF25043C0F679
:10133000000308E04FF27043C0F6000303E04FF2F1
:10134000B043C0F60003191D03F108020C331B88DB
:10135000126809688381C0E90112002250B2704707
:101360002DE9F0472DED028B03888046084601EBFE
:10137000830AD8F804200021B1EBD30F4FEA5309B8
:1013800000F0AB80D9080AEB890C00EB890E00272E
:10139000C4190AEB070594ED000A95ED003A94EDA7
:1013A000011A95ED014A0EEB07030CEB070694EDCD
:1013B000022A95ED025A70EE035A93ED006AD6EDBB
:1013C000001AD6ED012AD6ED023AD6ED034AC4ED55
:1013D000005A71EE045A93ED017AC4ED015A72EE8F
:1013E000055AD3ED020AC4ED025AD4ED035AD5EDE5
:1013F000036A31EE441A35EEA68A36EE214AD3ED61
:10140000037A84ED038A83ED004A37EE224A83EDA6
:10141000014A30EEA34A83ED024A37EEA44A83ED37
:10142000034AD31931EEC64A33EEE06AD3ED000A1F
:10143000D3ED011A30EE430A32EE452A32EEC75A96
:1014400060EE202A61EE213A21EE201A20EE210AD8
:1014500031EE400A85ED010A24EE210A25EE211A1B
:1014600025EE205A72EEA32A24EE204A30EE450AD9
:10147000C5ED002A86ED000A34EE010A86ED010A68
:1014800093ED020A93ED031A35EEE63A22EE004A96
:1014900023EE015A23EE003A22EE012A34EEE77AD7
:1014A00033EE422A85ED032A26EE012A27EE011AA1
:1014B00027EE003A26EE000A34EE054A32EE432AC1
:1014C00030EE010A013907F1100785ED024A86ED79
:1014D000022A86ED030A7FF45BAF4946022300F03F
:1014E00011FBD8F80420504649460223BDEC028B7C
:1014F000BDE8F04700F006BB2DE9F04F81B02DEDBF
:10150000088B8EB002880346500801EB800505EB7E
:10151000800691ED000A91ED011A96ED002A96EDF4
:10152000013A04935B6806EB800730EE024A30EE26
:10153000420A31EE032A31EE431A95ED013A95ED58
:10154000005A0593930897ED017AD7ED000A0293AC
:1015500074EE452A72EE433A34EE054A32EE032A1F
:101560006FF0010334EE204A32EE072A03EB9202B9
:1015700030EE036A71EE451A30EE430A31EE051A79
:1015800081ED004A0A9181ED012A510836EE476A41
:1015900071EEA01A72EEE02A73EEC73A30EE070A37
:1015A00031EE601A0095019603970D91C10085ED0B
:1015B000006AC5ED011AC6ED002AC6ED013A87EDB5
:1015C000000A87ED011A0C9100EB40016FF0070350
:1015D0006FF003074FEA800E07EBC00B07EB800AA2
:1015E00003EB001903EB81028C0000200025002191
:1015F0000B9100BF0A9E059B07900695089406EB89
:1016000004080C9C311806EB040C06EB0E0491ED5B
:10161000020A9CED022AD4ED020A30EE026AD8EDED
:10162000022A36EE204A34EE224A91ED031A9CED4E
:10163000033AD4ED031AD8ED033A81ED024A94ED52
:10164000034A31EE037A98ED035A37EE044ACDF897
:1016500024E034EE054A81ED034A0B9930EE420A4C
:1016600031EE431A30EE212A03EB010E32EE634ACB
:1016700031EE602A0D9932EE225A36EE602A37EEAC
:10168000613A30EE610A31EE201A1F18581932EE15
:10169000622A33EE633A30EE230A002931EE621AF1
:1016A00000F0CC800A998E1801EB0A0301EB0905C2
:1016B000594493ED007AD6ED010AD1ED003A77EE68
:1016C000202AD5ED014A72EEA35A75EEA45A13ED05
:1016D000016AD6ED001A51ED016AD5ED007AC3ED2D
:1016E000005A11ED018A76EE215A95ED009A35EEF9
:1016F000888A38EE098A03ED018A97ED028A97ED10
:10170000039A24EE08AA25EE09BA25EE085A24EE1B
:10171000094A35EE444A37EE605A84ED034A36EE04
:10172000614A35EE666A33EEE47A36EE276A74EE85
:10173000070A66EE091A20EE899A60EE880A26EEFC
:10174000086A3AEE0BAA71EEE00A36EE096A84EDF9
:1017500002AAC1ED000A01ED016A90ED046AD0ED24
:10176000050A62EE061A23EE208A23EE063A22EEDE
:10177000202A33EE422A8CED032A32EEE32A35EE9C
:10178000E63A71EE881A33EE673A32EE642A0D9823
:10179000CCED021A62EE461A23EE066A23EE203AD8
:1017A00022EE202A31EEC33A32EE462A013886ED87
:1017B000013A86ED002A0D909EED062A9EED073A2D
:1017C0000C9820EE026A61EE030A21EE021A20EE66
:1017D000030A083031EE400A37EEE61ADDF824E05D
:1017E0000C9088ED030A37EE440A31EE451A0B9847
:1017F00021EE034A20EE033A20EE020A36EE206A7A
:1018000021EE021A34EE400A183088ED026A85EDA6
:10181000010A31EE030A089C0B9085ED000A069D33
:1018200007980EF1080E083410350830A9F10809A0
:10183000083AABF1080BAAF1080ADBE697ED026A59
:1018400097ED037A64EE060A65EE071A25EE065A4E
:1018500024EE074A30EEA16A35EE444A84ED026A6E
:1018600084ED034A90ED044A90ED055A22EE046A95
:1018700023EE057A23EE043A22EE052A36EE074AD5
:1018800033EE422A8CED024A8CED032A9EED062AA5
:101890009EED073A029D20EE024A21EE035A21EE08
:1018A000021A20EE030A0A98059A34EE052A31EE50
:1018B000400A2946042388ED022A88ED030A00F035
:1018C00021F9049C009862682946042300F01AF963
:1018D000626801982946042300F014F962680398AD
:1018E000294604230EB0BDEC088B01B0BDE8F04FD3
:1018F00000F008B92DE9F04381B02DED028B0C46C4
:1019000000219046B1EB920F054674D04FEA98073C
:1019100095ED000A95ED011A20EE000A21EE011A5C
:1019200030EE018AB0EE480A07F0A4FBB4EE400A9C
:10193000F1EE10FA49D684ED000A95ED020A95ED14
:10194000031A20EE000A21EE011A30EE018AB0EEF1
:10195000480A07F08FFBB4EE400AF1EE10FA39D6D0
:1019600084ED010A95ED040A95ED051A20EE000AB2
:1019700021EE011A30EE018AB0EE480A07F07AFB38
:10198000B4EE400AF1EE10FA29D684ED020A95ED84
:10199000060A95ED071A20EE000A21EE011A30EE34
:1019A000018AB0EE480A05F1200904F1100607F09B
:1019B00061FBB4EE400AF1EE10FA15D684ED030A8D
:1019C000013F4D463446A3D113E0B0EE480A07F07C
:1019D00051FBB0E7B0EE480A07F04CFBC0E7B0EEB1
:1019E000480A07F047FBD0E7B0EE480A07F042FB91
:1019F000E4E734464D4618F0030620D095ED000A82
:101A000095ED011A20EE000A21EE011A30EE018A4E
:101A1000B0EE480A271D07F02DFBB4EE400AF1EEA8
:101A200010FA07D684ED000A013E05F108053C4690
:101A3000E4D104E0B0EE480A07F01CFBF2E7BDEC8D
:101A4000028B01B0BDE8F083F0B590ED000A4C1EAA
:101A50004FF0000CBCEB940F00F1040E3BD00127BB
:101A60002646A50867F301064FF0000C042700BFC7
:101A70009EED001A9EED012A9EED023AB4EE410A57
:101A80009EED034AF1EE10FABCBFB0EE410AA7F199
:101A9000030CB4EE420AF1EE10FABCBFB0EE420AFB
:101AA000A7F1020CB4EE430AF1EE10FABCBFB0EE9F
:101AB000430AA7F1010CB4EE440AF1EE10FABCBFE0
:101AC000B0EE440ABC46013D07F104070EF1100ECA
:101AD000CED100EB860E14F003000ED0404200BFC2
:101AE000BEEC011AB4EE410AF1EE10FABCBFB0EE42
:101AF000410A01EB000C0130F2D382ED000AC3F879
:101B000000C0F0BD2DE9F04F81B02DED108BA0B0DD
:101B1000DFED04CA00900430CDE902320190CDE936
:101B20001E1101E0F304353F1F9A4FF0000AD3085D
:101B3000DF00A7EBD200C0001D904FEAC20C03EB00
:101B4000430503EB8302580106931E01019B2C0100
:101B50004FEAC20EED00CDE90C0ECDE90A5600BFEA
:101B60000A9D191803EB05091D9D03EB0E0003EBFD
:101B7000070810ED014A86469A19181903EB050B60
:101B800013ED011A11ED012A18ED013A12ED017A57
:101B900050ED010A59ED011A5BED012A31EE025AAE
:101BA00033EE046A77EE203A71EEA24A75EE235ABC
:101BB00076EE246A75EEA67A43ED017A75EEE65A62
:101BC000D8ED007A9EED008A99ED00BA9BED00CA2F
:101BD000D3ED006A41ED015AD1ED005A92ED009A21
:101BE00090ED00AA37EE88EA7BEE0C8A36EEA5DA95
:101BF00039EE0AFA35EE635A36EE646A7EEE684ACA
:101C00007DEE0F9A7DEE4F3A35EE24DA35EE645ACA
:101C10007EEE28AA02ED01DA33EEC6DA00ED015AB3
:101C200036EE235A31EE421A33EE442A37EE603A4A
:101C300031EEE24A37EEC86A7BEE4C0A79EEAABA78
:101C400079EEEA9A72EE441A32EE042A36EE604ACF
:101C500036EE206AC3ED00BAC1ED009A82ED00DADB
:101C600080ED005A36EEE55A39EE4A7A61EEAC1A4A
:101C700022EE2C2A24EE2C4A26EE2C6A71EE210A42
:101C800073EE022A75EE043A77EE064A31EE611AD7
:101C900033EE422A35EE443A37EE464A264674463B
:101CA00070EEA45A70EEE40A31EE045A1F9A1E999F
:101CB00048ED015A73EEE25A4BED010A72EEA30AA7
:101CC000204604ED015A33EE425ADDF834E0C8ED07
:101CD000005ACBED000A84ED005A0C9831EE441AFC
:101CE00034460B9E924409ED011A32EE031A8A45DE
:101CF000634489ED001AFFF433AF1F984028C0F009
:101D0000D4810298009E80B205900698CDE90E4CD1
:101D1000C0EBC000C000002401251097049000BF54
:101D20000598039B044403EBC40191ED000A03EB07
:101D300004128DED1D0A92ED000A04EB440203EB40
:101D4000C2008DED1C0A90ED000A03EB44118DEDED
:101D50001B0A91ED000A04EB8401C80003EBC101EA
:101D60008DED1A0A91ED000A4FEAC20A4FEA021BF2
:101D700003EB02128DED190A92ED000AC4EBC402C6
:101D80004FEAC40CD10003EBC2028DED180A92EDAC
:101D9000000A0CF104024FEA041E1A448DED170AE2
:101DA00092ED000A0EF104021A448DED160A92ED2E
:101DB000000A0AF104024FEA44191A448DED150A8B
:101DC00092ED000A09F104021A448DED140A92ED15
:101DD000000A043018448DED130A90ED000A0BF14F
:101DE000040018448DED120A90ED000A081D1844F5
:101DF0000994D0ED006A0796B44608952B46DDE9B4
:101E00000C54DDE90A76DDF810808DED110A00BF73
:101E100010980E990CEB05090CEB000E0CEB04006E
:101E20000CEB060B0CEB010A0CEB07020CEB0801A8
:101E3000DCED027A99ED028A9EED029A90ED02AAFB
:101E40009BED02DA9AED02EA92ED02FAD1ED028AF6
:101E500037EE88BA39EE0ACA7DEE0E9A7FEE28AACE
:101E60007BEE29BAF0EE6C3A7CEE2ACA7BEEACDA55
:101E7000CCED02DA7BEEECBADCED03CAD9ED03DA85
:101E8000DEED03EAD0ED03FA9BED030A9AED031AA7
:101E900092ED032A91ED033A3CEEAD4A3EEEAF5A85
:101EA00030EE016A32EE037A74EE060A75EE071A16
:101EB000DDED1A4ADDED135A70EEA12A70EEE10A4B
:101EC000CCED032A64EEAB1A65EEA02A71EEA21ADD
:101ED00064EEA00A65EEAB2A70EEE20AC9ED021AC2
:101EE000C9ED030A7BEE690A7CEE6A1A34EE464AB3
:101EF00035EE475A9DED1CCADDED154A30EE856A78
:101F000034EE617A6CEE062A24EE87BA2CEE077A5C
:101F100024EE866A30EEC55A31EE844ADDED180AA9
:101F2000DDED111A37EE466A8BED036A20EE856A05
:101F300021EE847A20EE844A21EE855A37EE066A35
:101F400034EE454A39EE4A5A3FEE687A7EEEEF1A91
:101F500030EE410A32EE431A7BEE222A35EE472A52
:101F600035EE073A31EEC15A31EE811ACBED022A35
:101F70008AED026A8AED034A37EEC84A3DEE4E6AA0
:101F80007CEEED0A22EE232A23EE233A25EE235A95
:101F900021EE231AF0EE63CA34EE027A76EE031ACB
:101FA00070EE852A70EE017ADDED1D3ADDED164A00
:101FB00037EE278A32EEE19A23EE88AA24EE89BA18
:101FC00023EE899ADDED173A37EE677A71EEA21AA1
:101FD00063EE872A66EEA17A63EEA11A26EE877A6F
:101FE00024EE888A31EEC77A34EE422A36EE433A3E
:101FF00030EEC54A30EE410ADDED190ADDED121A68
:1020000039EE488A32EE001A34EE435A8EED038AD6
:1020100081ED037A20EE816A21EE857A20EE855AE1
:1020200021EE811A3AEE0BAA72EEA72A36EE076A63
:1020300035EE411A8EED02AAC1ED022A80ED026A48
:1020400080ED031A1F9833EE041A03441E989DED89
:102050001B4A9DED145A32EE400A83420F9824EE3B
:10206000002A25EE013A24EE011A25EE000A32EE8E
:10207000032A31EE400A844482ED022A82ED030AEB
:10208000FFF4C6AE089D0698079E0135099C85425F
:1020900006F10806FFF444AE0298C00002901F98B3
:1020A0003F2806981F903FF63FAD20B0BDEC108B47
:1020B00001B0BDE8F08F10B578B14FF4007104465F
:1020C000FFF7F4F850B94FF4806020824FF240409F
:1020D000C0F601006061002000E0FF2040B210BDAA
:1020E00010B568B140210446FFF7E0F848B98020F8
:1020F000208240F24040C0F602006061002000E013
:10210000FF2040B210BD10B578B14FF48061044695
:10211000FFF7CCF850B94FF40060208240F24060E5
:10212000C0F602006061002000E0FF2040B210BD58
:1021300010B570B180210446FFF7B8F850B94FF4DC
:102140008070208242F24060C0F602006061002090
:1021500000E0FF2040B210BD10B568B11021044668
:10216000FFF7A4F848B92020208242F64020C0F6AC
:1021700002006061002000E0FF2040B210BD10B5F9
:1021800078B14FF400610446FFF790F850B94FF46E
:102190008050208242F6C020C0F60200606100201C
:1021A00000E0FF2040B210BD10B578B14FF480714F
:1021B0000446FFF77BF850B94FF40070208246F6D2
:1021C000C020C0F602006061002000E0FF2040B2A5
:1021D00010BD10B568B120210446FFF767F848B973
:1021E0004020208247F2C020C0F60200606100203B
:1021F00000E0FF2040B210BDF0B581B014460E469D
:10220000054673B12846314622461F4600F060F865
:10221000284621463A46012301B0BDE8F040FEF7CA
:10222000D5BF2846314600220123FEF7CFFF2846BE
:102230003146224601B0BDE8F04000F0A3B8B1F548
:10224000007F0ADA7F2916DC202929D040293BD1DA
:1022500042F2D311C0F600010847B1F5006F14DA5D
:10226000B1F5007F21D0B1F5806F2DD142F2B701D9
:10227000C0F60001084780291CD0B1F5807F23D12A
:1022800042F23111C0F600010847B1F5805F16D067
:10229000B1F5006F18D142F20711C0F600010847EE
:1022A00042F25911C0F60001084742F2A911C0F6E6
:1022B0000001084742F2E101C0F60001084742F27E
:1022C0007F11C0F6000108474FF0FF307047000053
:1022D00080B591ED001A91ED012AD0F814E0008844
:1022E00031EE023AB6EE000A31EE421AB0F1010CBC
:1022F00023EE003A21EE001A82ED003A82ED011A37
:1023000008BF80BD01F1080301EBCC010EF108000C
:102310000832043111ED011A91ED002A93ED003AD3
:1023200093ED014A90ED005A90ED016A33EE417A47
:1023300072EE040A67EE051A60EE862A27EE066A38
:1023400031EE031A34EE422A25EE205A31EE611A9C
:1023500032EE062A31EE621A32EE452A21EE001ADA
:1023600022EE002A82ED001A82ED012ABCF1010C56
:1023700003F1080300F1080002F10802A1F10801CD
:10238000C8D180BD91ED000A91ED011A0388406922
:1023900030EE002A31EE011AA3F1010C32EE013ABF
:1023A000B6EE000A32EE411A23EE003A21EE001A90
:1023B00000F1080301F1080001EBCC0182ED003AC5
:1023C00082ED011A0832043111ED011A90ED003A44
:1023D00091ED002A90ED014A93ED005A93ED016AC8
:1023E00031EE437A72EE040A67EE051A27EE067A9A
:1023F00031EE031A34EE422A25EE205A20EE866A88
:1024000031EE211A32EE072A31EE061A32EE452A53
:1024100021EE001A22EE002A82ED001A82ED012A36
:10242000BCF1010C03F1080300F1080002F10802FD
:10243000A1F10801C8D1704770B506460C4610EEF0
:10244000100AFEF78EFA9FED251B53EC112BFEF7B9
:1024500081F99FED241B53EC112BFEF7EDF9FEF7EC
:1024600067FA00EE104ADFED210A9FED211AB8EE5F
:10247000400A054646F4005620EE200AC0EE010A46
:10248000B6EE000A30EE800ABCEEC00A10EE100A6A
:1024900084B2B4F5805F01D340F6FF7446F48070D7
:1024A00000F0A2F8012001F0EBFDC5F30D0040F4AF
:1024B000804000F099F84FF4804040EA953080B2B7
:1024C00000F092F844F4404000F08EF8012001F052
:1024D000D7FD3046BDE8704000F086B8000000002F
:1024E0000000B0410000000084D777410000804523
:1024F0000000B44300B587B014216846FDF7ACFE78
:102500000B480021026842F004020260006800F0FB
:1025100004000590072000900120CDE90101022070
:1025200003906946034801F0BDFD07B000BD0000FF
:10253000303802400008024010B5FFF7DBFFBDE86D
:1025400010404FF4807000F04FB800002DE9FC41BE
:1025500004460020234E884600900190012202216B
:10256000304601F01DFF00220121304601F018FF26
:1025700000206D4604E0211849782954401CC0B25F
:102580004045F8D300241DE00027285D000601D552
:10259000012200E000220421304601F001FF002268
:1025A0000221304601F0FCFE285D01224000285542
:1025B0000221304601F0F4FE7F1CFFB2082FE4D365
:1025C000641CE4B24445DFD301220421304601F00B
:1025D000E7FE01221146304601F0E2FE2046BDE84A
:1025E000FC810000000802401CB5074AD2E9001235
:1025F000CDE90012010A8DF801108DF802000221C8
:102600006846FFF7A3FF1CBDDC9E000810B501461D
:10261000806B026C12F0500F05D0026CD20626D5EA
:1026200000F0AEFD10BD016C41F400710164016861
:102630008A6812F0405F17D1027EAAB9CA6A12F402
:10264000700F02D08A6852050ED44A6822F0200228
:102650004A60016C21F480710164016CC90403D4E7
:10266000016C41F00101016400F04CFD10BD806B74
:10267000C26CBDE810400846104710B5806B402181
:102680000164416C41F00401416400F079FD10BD2A
:1026900010B5806B00F060FD10BD000010B5044661
:1026A0004B48416821F44031416041686268114300
:1026B00041602068416821F4807141602068416870
:1026C000226941EA022141602068416821F040719D
:1026D000416020684168A2681143416020688168B8
:1026E00021F40061816020688168E26811438160A3
:1026F000A06A6FF07061C8422068816821F0706143
:102700008160206881680CD0A26A114381602068D2
:10271000816821F04051816020688168E26A11433C
:1027200001E021F0405181602068816821F00201C0
:10273000816020688168227E41EA4201816094F8CC
:10274000200000283FD0606A401E072804D94FF4BB
:10275000F56120A007F000FA2068416841F40061AB
:1027600041602068416821F460414160206841680F
:10277000264B626A03EB4232114341602068C16A12
:1027800021F47001C1622068C16AA28B204B03EB67
:1027900002521143C1622068816821F40071816096
:1027A0002068816894F8302041EA422181602068E5
:1027B000816821F48061816020688168626941EAF2
:1027C0008221816010BD2068416821F40061D4E756
:1027D000002301402E2E2F447269766572732F53A9
:1027E000544D3332463478785F48414C5F447269C7
:1027F0007665722F5372632F73746D33326634783B
:10280000785F68616C5F6164632E630000E0FFFFC6
:102810000000F0FF70B505460C46EE2005F088FA82
:10282000B12005F085FA202005F082FA280A05F08B
:102830007FFAE8B205F07CFA200A05F079FAE0B2F6
:1028400005F076FAFF2005F073FAFC2005F070FA27
:10285000FF2005F06DFABDE87040FF2005F068BA72
:10286000FEE7000000B587B014216846FDF7F4FCD0
:102870000B480021026842F002020260006800F08A
:1028800002000590602000900120CDE901010220A6
:1028900003906946034801F005FC07B000BD000045
:1028A000303802400004024000B587B01421684669
:1028B000FDF7D2FC0B480021026842F004020260DE
:1028C000006800F004000590202000900120CDE970
:1028D0000101022003906946034801F0E3FB07B0C1
:1028E00000BD00003038024000080240014801F0FD
:1028F00023B90000301B0020014801F01DB9000081
:10290000901B0020014801F017B900006417002057
:10291000014801F011B90000C41700200168182314
:10292000CAB2103AB2FBF3F2054B6FF30901032A66
:102930009B5CC36500D9091D81650846704700008E
:10294000BC9E000810B5014600208B698A6A4FF0D2
:10295000C07453B1B3F5005F15D072B1012A0CD029
:10296000022A0AD0032A09D104E01AB1012A06D0AA
:10297000022A03D1C96AC90100D5012010BDC96A64
:10298000A142FAD010BD002AF7D0012AF2D0022AC3
:10299000F3D0032AF3D010BD30B50468256825F4C0
:1029A00080252560046863608368402B036803D03A
:1029B00099600068C26030BD9A600068C16030BD37
:1029C000704772B6FEE710B5EE2005F0B1F90120B0
:1029D00005F0AEF9FF2005F0ABF9FC2005F0A8F9F1
:1029E000FF2005F0A5F9BDE81040FF2005F0A0B9D3
:1029F00070B5054614460E46EE2005F099F96320A1
:102A000005F096F9284605F093F94FF6FF7000EAB5
:102A10004401304605F096F9FF2005F089F9FC20C5
:102A200005F086F9FF2005F083F9BDE87040FF202E
:102A300005F07EB970B505460C46EE2005F078F934
:102A4000B12005F075F9112005F072F9280A05F09A
:102A50006FF9E8B205F06CF9200A05F069F9E0B207
:102A600005F066F9FF2005F063F9FC2005F060F938
:102A7000FF2005F05DF9BDE87040FF2005F058B972
:102A800070B5054608680C46122804D94FF44F71FA
:102A9000BEA007F061F86068401E032804D940F228
:102AA0003D31BAA007F058F8A06890B1012810D0C5
:102AB00002280ED003280CD004280AD0052808D0FC
:102AC000062806D0072804D040F23E31AFA007F018
:102AD00043F8BD4EA06998B3B0F5803F30D0B0F553
:102AE000003F2DD0B0F5403F2AD0B0F5802F27D041
:102AF000B0F5A02F24D0B0F5C02F21D0B0F5E02F35
:102B00001ED0B0F5002F1BD0B0F5102F18D0B0F5A7
:102B1000202F15D0B0F5302F12D0B0F5402F0FD0A8
:102B2000B0F5502F0CD0B0F5602F09D0B0F5702F54
:102B300006D0B04204D040F23F3194A007F00CF828
:102B40002069401E032804D94FF450718FA007F06C
:102B500003F8607D30B1012804D040F241318BA0F0
:102B600006F0FAFF207D30B1012804D040F2423156
:102B700086A006F0F1FF2868406810F0407009D088
:102B8000B0F1807F0BD0B0F1007F0DD0B0F1407F6D
:102B90000ED010E0E068B0F5805F11D30BE0E06884
:102BA000B0F5806F0CD306E0E068FF2808D902E09A
:102BB000E0683F2804D940F2463174A006F0CCFF0B
:102BC000A069B0420FD0E06968B1B0F5801F0AD0AB
:102BD000B0F5001F07D0B0F5401F04D040F24B31D4
:102BE0006AA006F0B9FF95F83C00012819D0012031
:102BF00085F83C00206807212A68092813D9D36882
:102C00000A3800EB400081408B43D3602078A168F4
:102C10000A3800EB400081402868C2681143C16057
:102C200010E0022070BD136900EB400081408B432F
:102C300013612178A06801EB4101884029680A6985
:102C4000104308612868816B21F440118163286872
:102C5000816B228A5D4B03EB025211438163207921
:102C6000217C401AC01C00EB80001F218140286895
:102C7000826B8A4382632079217C401AC01C00EB5E
:102C80008001208880B2884029688A6B104388635D
:102C9000A069B0422868816821F4702181602868A9
:102CA00081680CD0A269114381602868816821F491
:102CB0004011816028688168E269114301E021F4D4
:102CC00040118160607D00282868416802D041F48D
:102CD000806101E021F480614160207D0028286846
:102CE000416802D041F4805101E021F480514160FB
:102CF0006068012816D002281FD00328286827D032
:102D0000016A6FF30B0101622868016AE2681143EE
:102D1000016230492A682E488A4227D12268122A45
:102D200020D023E0286841696FF30B0141612868D6
:102D30004169E26811434161EBE7286881696FF3FB
:102D40000B01816128688169E26811438161E0E7D4
:102D5000C1696FF30B01C1612868C169E268114361
:102D6000C161D6E7426842F4800242602A688A4222
:102D700008D12168102901D0112903D1416841F4FB
:102D800000014160002085F83C0070BD2E2E2F44CC
:102D90007269766572732F53544D333246347878A6
:102DA0005F48414C5F4472697665722F5372632F9E
:102DB00073746D3332663478785F68616C5F616418
:102DC000635F65782E63000001000F000000F0FFD4
:102DD000002301400020014070B50A680C460546FA
:102DE000E2B1012A1AD0022A18D0052A16D0062AE2
:102DF00014D0072A12D0092A10D0112A0ED0122A74
:102E00000CD0152A0AD0162A08D0172A06D0192A5B
:102E100004D040F2DB3136A006F09EFE606868B157
:102E2000B0F5804F0AD0B0F5004F07D0B0F5404F55
:102E300004D04FF477712EA006F08EFEA2688AB3FC
:102E4000B2F5807F2ED0B2F5007F2BD0B2F5407F57
:102E500028D0B2F5806F25D0B2F5A06F22D0B2F5A0
:102E6000C06F1FD0B2F5E06F1CD0B2F5006F19D063
:102E7000B2F5106F16D0B2F5206F13D0B2F5306FE7
:102E800010D0B2F5406F0DD0B2F5506F0AD0B2F548
:102E9000606F07D0B2F5706F04D040F2DD3114A03E
:102EA00006F05AFE95F83C0001281ED0012005F8D6
:102EB0003C0F1E48416821F01F01416041682268B3
:102EC00011434160416821F44041416041686268BA
:102ED00011434160416821F4706141604168A2681A
:102EE000114341600020287070BD022070BD0000B9
:102EF0002E2E2F447269766572732F53544D3332E0
:102F0000463478785F48414C5F4472697665722F29
:102F10005372632F73746D3332663478785F6861EF
:102F20006C5F6164635F65782E630000002301407D
:102F3000F8B500260546009608680C46122804D904
:102F400040F28B615DA006F007FE6068401E0F280E
:102F500004D940F28C6159A006F0FEFDA06890B142
:102F6000012810D002280ED003280CD004280AD043
:102F7000052808D0062806D0072804D040F28D6125
:102F80004EA006F0E9FD95F83C00012819D001207B
:102F900085F83C00206807212A68092813D9D368DE
:102FA0000A3800EB400081408B43D3602178A06851
:102FB0000A3901EB410188402968CA681043C8609A
:102FC00010E00220F8BD136900EB400081408B4304
:102FD00013612178A06801EB4101884029680A69E2
:102FE0001043086160681F21072813D22A68536BB9
:102FF000401E00EB800081408B4353632179208881
:10300000491E80B201EB8101884029684A6B104358
:10301000486327E02A680D2812D2136BC01F00EB0B
:10302000800081408B43136321792088C91F80B2BF
:1030300001EB8101884029680A6B1043086311E0A5
:10304000D36A0D3800EB800081408B43D362217935
:1030500020880D3980B201EB810188402968CA6A55
:103060001043C86224492A6822488A4206D122684D
:10307000122A03D1426842F4800242602A688A42DE
:1030800018D12168102901D0112913D1416841F4C8
:1030900000014160206810280CD1184818490068C8
:1030A000B0FBF1F000EB8000400000E0401E00901B
:1030B0000028FBD185F83C600020F8BD2E2E2F445F
:1030C0007269766572732F53544D33324634787873
:1030D0005F48414C5F4472697665722F5372632F6B
:1030E00073746D3332663478785F68616C5F6164E5
:1030F000632E6300002301400020014024100020C3
:1031000040420F0070B500680A4901250A4C884208
:1031100008D16178A01C45546078401C00F0030081
:10312000607070BD05498842FBD105A005F0C0FE66
:10313000257070BD002001400210002000220140D7
:103140004144433320444D4120436F6D706C65749E
:1031500065210D0A0000000000680749884209D176
:10316000064A0021901E4378D1544178491C01F051
:10317000030141707047000000200140041000204E
:10318000704700002DE9F04704004FF000057DD0A6
:103190007249206888420AD07149884207D0714933
:1031A000884204D04FF4A1716FA006F0D5FC60688E
:1031B00068B1B0F5803F0AD0B0F5003F07D0B0F558
:1031C000403F04D040F2431167A006F0C5FCA06860
:1031D0004FF080774FF000784FF0407950B1B8420F
:1031E00008D0404506D0484504D04FF4A2715EA0F7
:1031F00006F0B2FC206930B1012804D040F245113C
:1032000059A006F0A9FC207E30B1012804D04FF46B
:10321000A37155A006F0A0FC614EA06A80B3B8422D
:103220002ED040452CD048452AD0B0F1806F27D011
:10323000B0F1A06F24D0B0F1C06F21D0B0F1E06F39
:103240001ED0B0F1006F1BD0B0F1106F18D0B0F1EC
:10325000206F15D0B0F1306F12D0B0F1406F0FD0A9
:10326000B0F1506F0CD0B0F1606F09D0B0F1706F59
:1032700006D0B04204D040F247113BA006F06CFCEF
:10328000E06848B1B0F5006F06D000E043E04FF4CD
:10329000A47135A006F060FCE069401E0F2804D937
:1032A00040F2491130A006F057FC94F8300030B1DC
:1032B000012804D04FF4A5712BA006F04DFC6069E5
:1032C000012807D030B1022804D040F24B1126A0CB
:1032D00006F042FC94F8200030B1012804D04FF4ED
:1032E000A67121A006F038FCA06AB0420FD0E06AB7
:1032F00068B1B0F1805F0AD0B0F1005F07D0B0F1E3
:10330000405F04D04FF4A87117A006F025FC206C94
:10331000002618B108E00120BDE8F087204600F043
:1033200041F8666484F83C60206CC00610D4206CC0
:1033300020F4885040F0020020642046FFF7AEF9E8
:103340006664206C20F0020040F00100206400E080
:10335000012584F83C602846DEE70000002001409B
:1033600000210140002201402E2E2F447269766513
:1033700072732F53544D3332463478785F48414C42
:103380005F4472697665722F5372632F73746D3365
:1033900032663478785F68616C5F6164632E6300C5
:1033A0000100000F2DE9F04786B00646142168465B
:1033B000FCF752FF45484549DFF80CC13568002449
:1033C00014390322424B87154FF480684FF400698B
:1033D0004FF4005A654529D1056845F480750560AC
:1033E000006800F480700590086840F001000860F3
:1033F0000868694600F00100059004208DE815007A
:10340000184600F04FFE344D324805F10C0CC5E96A
:103410000004AC608CE81007C5E9077428466C62AC
:103420004BE0B563AE6306B0BDE8F087DFF8ACC033
:10343000654517D1056845F400750560006800F41E
:1034400000700590086840F001000860086869464F
:1034500000F00100059008208DE81500184600F0E6
:1034600021FEE0E71E4B9D42DDD1036843F48063FB
:103470000360006800F480600590086840F0200058
:1034800008600868009700F020000590CDE901244D
:103490006946144800F006FE0F4D0E48603518309E
:1034A00028604FF08060C5E9010405F10C0328464F
:1034B00083E81007C5E907746C6200F00DFC002872
:1034C000AFD0FFF77EFAACE700200140443802405D
:1034D00000000240106402406417002000210140F7
:1034E00000220140001402402DE9F8430026044662
:1034F0000096007E17468846354630B1012804D034
:1035000040F25A5153A006F027FBE06A68B1B0F1CF
:10351000805F0AD0B0F1005F07D0B0F1405F04D007
:1035200040F25B514BA006F017FB94F83C000128D9
:1035300007D0012084F83C0020688168C90703D0C7
:1035400012E00220BDE8F883816841F0010181604A
:103550004E484F490068B0FBF1F000EB400000E03E
:10356000401E00900028FBD120688168C90503D562
:10357000816821F48071816020688168C9075ED00C
:10358000216C40F20162914341F4807121644068F2
:10359000400505D5206C20F4005040F48050206494
:1035A000206CC00404D5606C20F00600606400E06C
:1035B000666484F83C60A16B3748364EC863A16BE3
:1035C00036480864A16B3648C86421686FF0220051
:1035D00008602068416841F080614160206881682E
:1035E00041F48071816021683B4642464C31A06BBA
:1035F00000F0E2FC054670682A49C006206806D043
:10360000884224D1816811F0405F13D01FE08842C6
:10361000F8D0254A904203D1D1F80423D206F1D044
:10362000224A904213D1D1F8041301F01F0110294E
:10363000E8D30CE0816841F08041816007E0206CB4
:1036400040F010002064606C40F001006064284687
:1036500078E700002E2E2F447269766572732F531F
:10366000544D3332463478785F48414C5F44726938
:103670007665722F5372632F73746D3332663478AC
:10368000785F68616C5F6164632E630024100020C2
:1036900040420F00002301400D260008912600083B
:1036A0007B2600080020014000210140002201404B
:1036B00070B5044600682149002588420AD0204997
:1036C000884207D01F49884204D040F2ED511EA025
:1036D00006F042FA94F83C0001280CD0012084F84E
:1036E0003C002068816821F00101816020688168C8
:1036F000C90702D01DE0022070BD816821F48071ED
:103700008160A06B90F83510022907D100F0B8F95C
:10371000050003D0206C40F0400020642068416820
:1037200021F080614160206C20F4885040F001005D
:103730002064002084F83C00284670BD0020014031
:1037400000210140002201402E2E2F44726976652F
:1037500072732F53544D3332463478785F48414C5E
:103760005F4472697665722F5372632F73746D3381
:1037700032663478785F68616C5F6164632E6300E1
:103780002DE9F04116460D46040049D0002D47D0E2
:103790002868A0B1242812D00C2810D014280ED0EC
:1037A0001C280CD004280AD02C2808D0342806D095
:1037B0003C2804D04FF474711BA006F0CDF9686862
:1037C00030B1022804D040F2D13117A006F0C4F97C
:1037D00036B1102E04D040F2D23113A006F0BCF95D
:1037E000607901281ED001276771022020712368AB
:1037F000186806F0100240F6FE7191408843D5E942
:103800000015294391400143196020680168C023D5
:10381000934099430160277100206071BDE8F081F9
:103820000120FBE70220F9E72E2E2F44726976650E
:1038300072732F53544D3332463478785F48414C7D
:103840005F4472697665722F5372632F73746D33A0
:1038500032663478785F68616C5F6461632E630000
:1038600070B504000CD00D492068884204D040F2A5
:1038700017110BA006F070F92079002510B105E0B2
:10388000012070BD6571204600F026F802202071ED
:10389000256101202071002070BD000000740040EF
:1038A0002E2E2F447269766572732F53544D333226
:1038B000463478785F48414C5F4472697665722F70
:1038C0005372632F73746D3332663478785F686136
:1038D0006C5F6461632E630010B586B004461421EA
:1038E0006846FCF7B9FC1149206888421CD1104891
:1038F0000021026842F000520260006800F00050AF
:1039000005900B481038026842F00102026000681E
:1039100000F001000590302000900320CDE9010166
:103920006946044800F0BEFB06B010BD00740040BC
:103930004038024000000240F8B507004FF0000098
:103940001E4614460D46009023D035B1102D04D0EC
:1039500040F22B3111A006F0FFF844B1042C06D040
:10396000082C04D04FF44B710CA006F0F5F84FF67C
:10397000F070864204D940F22D3108A006F0ECF830
:1039800038680090204435B1143000900660002063
:10399000F8BD0120F8BD0830F7E700002E2E2F44B7
:1039A0007269766572732F53544D3332463478788A
:1039B0005F48414C5F4472697665722F5372632F82
:1039C00073746D3332663478785F68616C5F6461FC
:1039D000632E630070B50D46040027D035B1102D5D
:1039E00004D04FF4DE7118A006F0B6F86079012813
:1039F0001ED0012060710221217121680E6805F03E
:103A0000100200FA02F31E430E60216895B10B68A4
:103A100003F470153C2393409D4203D14A6842F061
:103A200002024A6020710020607170BD012070BDEB
:103A3000022070BD0A68C2F383020F2AF2D14A68DD
:103A400042F00102EDE700002E2E2F4472697665E8
:103A500072732F53544D3332463478785F48414C5B
:103A60005F4472697665722F5372632F73746D337E
:103A700032663478785F68616C5F6461632E6300DE
:103A80002DE9F0410446876D00F0C0FC064694F82D
:103A900035000025022806D08020606584F8345067
:103AA0000120BDE8F0812068016821F01601016065
:103AB0002068416921F080014161206C08B9A06C47
:103AC00020B12068016821F00801016020680168C8
:103AD00021F0010101600CE000F098FC801B05283A
:103AE00007D920206065032084F8350084F834501D
:103AF000D7E720680068C007EED194F85C103F203B
:103B00008840B860012084F8350084F834500020E3
:103B1000C7E790F83510022903D0802141650120C4
:103B20007047052180F835100068016821F0010117
:103B300001600020704700002DE9F84304464FF073
:103B40000009CDF8009063484FF41651A56D006848
:103B5000B0FBF1F72E6894F85C10082000FA01F130
:103B600031420FD021680A6852070BD50A6822F04B
:103B700004020A6094F85C108840A860606D40F010
:103B80000100606594F85C104FF0010808FA01F03C
:103B9000304208D021684969090604D5A860606DE3
:103BA00040F00200606594F85C10042088403042C8
:103BB00008D021680968890704D5A860606D40F0C5
:103BC0000400606594F85C1010208840304218D0E2
:103BD00021680968090714D5A860206801684903AD
:103BE00004D50068000308D5A16C07E00168C90589
:103BF00003D4016821F008010160216C09B120465D
:103C0000884794F85C1020208840304231D02168E9
:103C10000968C9062DD5A86094F8350005282068E4
:103C2000016806D0490347D5006800031DD4616CC4
:103C30001CE021F0160101602068416921F080013B
:103C40004161206C08B9A06C20B12068016821F0A6
:103C50000801016094F85C103F208840A86084F857
:103C6000358084F83490216D1FE0E16B09B1204666
:103C70008847606D00282BD0606DC00714D00520E8
:103C800084F835002068016821F001010160009886
:103C9000401C0090B84203D820680068C007F6D1E5
:103CA00084F8358084F83490E16C002910D001B09C
:103CB0002046BDE8F04308470168C905D5D401682E
:103CC00021F01001016084F8358084F83490CCE74D
:103CD000BDE8F883241000202DE9F041044600F0EF
:103CE00095FB0546002C7CD0A249206888423ED036
:103CF000A049183188423AD09E493031884236D0A6
:103D00009C494831884232D09A49603188422ED04D
:103D10009849783188422AD096499031884226D0F5
:103D20009449A831884222D0934988421FD09249B1
:103D3000183188421BD090493031884217D08E49C3
:103D40004831884213D08C49603188420FD08A496B
:103D5000783188420BD088499031884207D0864913
:103D6000A831884203D0B72184A005F0F5FE606831
:103D7000C0B1B0F1007F15D0B0F1806F12D0B0F1BA
:103D8000C06F0FD0B0F1006F0CD0B0F1206F09D030
:103D9000B0F1406F06D0B0F1606F03D0B82177A0CA
:103DA00005F0DAFEA06838B1402805D0802803D09D
:103DB000B92172A005F0D0FEE068B0F5007F04D014
:103DC00018B1BA216DA005F0C7FE2069B0F5806F6B
:103DD00004D018B1BB2169A005F0BEFE606958B1DE
:103DE00000E071E0B0F5006F06D0B0F5805F03D061
:103DF000BC2162A005F0B0FEA06948B1B0F5005F3B
:103E000006D0B0F5804F03D0BD215CA005F0A4FE24
:103E1000E06940B1B0F5807F05D0202803D0BE21F5
:103E200056A005F099FE206A60B1B0F5803F09D038
:103E3000B0F5003F06D0B0F5403F03D0BF214FA002
:103E400005F08AFE606A002832D0042806D0C0211E
:103E50004AA005F081FE606A002829D0A06A48B116
:103E6000012807D0022805D0032803D0C52143A08C
:103E700005F072FEE06A60B1B0F5000F09D0B0F154
:103E8000807F06D0B0F1C07F03D0C6213BA005F0F3
:103E900063FE206B60B1B0F5001F09D0B0F5800F54
:103EA00006D0B0F5C00F03D0C72134A005F054FEF2
:103EB000022084F83500002684F834602068016808
:103EC00021F0010101600EE00120BDE8F08100BF9A
:103ED00000F09CFA401B052805D9202060650320CE
:103EE00084F83500F1E720680068C007F0D1226847
:103EF000116830480140D4E901031843D4E903357F
:103F00002B43184363691843A3691843E3691843B3
:103F1000236A18430843616A042903D1D4E90B13C7
:103F200019430843106020684069656A20F0070063
:103F300029460543012704290CD1A06A0543E06AFC
:103F400040B12046FEF7FEFC20B14020606584F8B9
:103F50003570B9E7206845612046FEF7DFFC94F82C
:103F60005C203F2191408160666584F835700020B7
:103F7000ABE7000010600240106402402E2E2F4478
:103F80007269766572732F53544D333246347878A4
:103F90005F48414C5F4472697665722F5372632F9C
:103FA00073746D3332663478785F68616C5F646D0A
:103FB000612E63003F8010F02DE9F04789460446EA
:103FC000876D0025581E4FF6FF711E4690468842A9
:103FD00004D340F2CB111CA005F0BEFD94F83400D0
:103FE00001280DD0012084F8340094F83510002009
:103FF000012907D084F8340002252846BDE8F0875F
:104000000220FBE7022184F8351060653346424602
:1040100049462046FEF7C0FC94F85C103F208840DB
:10402000B8602068016841F016010160206C20B181
:104030002068016841F0080101602068016841F0D2
:1040400001010160D9E700002E2E2F4472697665C8
:1040500072732F53544D3332463478785F48414C55
:104060005F4472697665722F5372632F73746D3378
:1040700032663478785F68616C5F646D612E6300CE
:1040800070B5044600F0C2F90546601C02D0044831
:104090000078044400F0BAF9401BA042FAD370BD86
:1040A000181000202DE9F84FDFF888B20D460446BD
:1040B00058451BD0A048844218D0A048844215D04F
:1040C0009F48844212D09F4884420FD09E48844229
:1040D0000CD09E48844209D09D48844206D09D4819
:1040E000844203D0AC219CA005F036FD2868010471
:1040F000090C01D0000C03D0AD2197A005F02CFDD8
:104100006868F8B101281DD011281BD0022819D0E9
:10411000122817D0B0F5881F14D0B0F5041F11D0A5
:10412000B0F5441F0ED0B0F5901F0BD0B0F5081FAE
:1041300008D0B0F5481F05D0032803D0AE2186A0D3
:1041400005F00AFD00264FF0010A4FF0030900BFF9
:104150000AFA06F02F688046074047457ED1287945
:1041600000F00300012801D002281DD1E86848B101
:10417000012807D0022805D0032803D0C02176A04B
:1041800005F0EAFCA168720009FA02F08143E868D0
:1041900090400843A0606068297920EA0800C1F3D4
:1041A0000011B140014361602879C043800712D0FB
:1041B000A86838B1012805D0022803D0D12166A013
:1041C00005F0CAFCE168720009FA02F08143A868B0
:1041D00090400843E060287900F0030002282ED1C7
:1041E0002869F8B109281DD001281BD0022819D050
:1041F000032817D0042815D0052813D0062811D07D
:1042000007280FD008280DD00A280BD00B2809D07A
:104210000C2807D00D2805D00F2803D0DE214EA092
:1042200005F09AFCF00804EB8002106A7107CB0ECF
:104230000F21994088432969994001431162206800
:10424000720009FA02F18843297901F003019140D3
:1042500001432160686810F4403F00E063E062D0F1
:104260004C48016841F480410160006826F0030178
:1042700000F48040009048480A18D2F80808B107B6
:104280000B0F0F21994088435C4501D1002123E0A9
:1042900029498C4201D101211EE028498C4201D1DB
:1042A000022119E026498C4201D1032114E025495D
:1042B0008C4201D104210FE023498C4201D1052118
:1042C0000AE022498C4201D1062105E020498C42B6
:1042D00001D1072100E0082199400143C2F80818E4
:1042E0002E4908686A68B843D20200D5384308608E
:1042F0002A49091D08686A68B843920200D5384304
:1043000008602649091F08686A68B843920300D507
:10431000384308602149083908686A68B843D203FD
:1043200000D538430860761C102EFFF411AFBDE8AD
:10433000F88F000000000240000402400008024024
:10434000000C02400010024000140240001802401D
:10435000001C0240002002402E2E2F447269766518
:1043600072732F53544D3332463478785F48414C42
:104370005F4472697665722F5372632F73746D3365
:1043800032663478785F68616C5F6770696F2E633E
:10439000000000004438024000300140083C014069
:1043A00070B515460C00064604D140F29D1108A0D8
:1043B00005F0D2FB45B1012D04D04FF4CF7104A01C
:1043C00005F0CAFBB46170BD2004B06170BD00008F
:1043D0002E2E2F447269766572732F53544D3332EB
:1043E000463478785F48414C5F4472697665722F35
:1043F0005372632F73746D3332663478785F6861FB
:104400006C5F6770696F2E63000000000148806870
:10441000704700001810002002488168027811449B
:1044200081607047181000200B4810B5016841F4F6
:1044300000710160016841F480610160016841F42C
:1044400080710160032000F0C3F80F2000F006F82F
:1044500000F024F8002010BD003C024070B50D4D66
:1044600004464FF47A712878B1FBF0F00A490968E4
:10447000B1FBF0F000F0B6FC48B9102C07D20022D6
:104480002146501E00F054F800206C6070BD0120E1
:1044900070BD000018100020241000200A4808B544
:1044A000016841F480410160006800F480400090A0
:1044B0000548001F016841F080510160006800F06C
:1044C0008050009008BD00004438024010B5040040
:1044D00003D5BC2107A005F03FFB002C09DB04F04D
:1044E0001F01012088406109890001F1E021C1F824
:1044F000000110BD2E2E2F447269766572732F5302
:10450000544D3332463478785F48414C5F44726989
:104510007665722F5372632F73746D3332663478FD
:10452000785F68616C5F636F727465782E630000FA
:1045300070B515460C460646102A03D3A82114A0D0
:1045400005F00AFB102C03D3A92111A005F004FBF0
:104550001E480068C0F30223C3F107022046042A64
:1045600000D90422191D072901D2002300E0DB1E17
:10457000012404FA02F1491E014099409C40641E46
:104580002C4021433046BDE8704004F0BBBC000025
:104590002E2E2F447269766572732F53544D333229
:1045A000463478785F48414C5F4472697665722F73
:1045B0005372632F73746D3332663478785F686139
:1045C0006C5F636F727465782E6300000CED00E021
:1045D00010B5044607280BD0062C09D0052C07D0AF
:1045E000042C05D0032C03D0902108A005F0B4FAC8
:1045F000154904F0070208684FF6FF03184040EA27
:104600000220124A1043086010BD00002E2E2F44D5
:104610007269766572732F53544D3332463478780D
:104620005F48414C5F4472697665722F5372632F05
:1046300073746D3332663478785F68616C5F636F72
:10464000727465782E6300000CED00E00000FA053E
:104650002DE9F0470E4604007DD02068401E0E284C
:1046600004D940F25A217AA005F076FA96B1012ECB
:1046700010D0022E0ED0032E0CD0042E0AD0052E00
:1046800008D0062E06D0072E04D040F25B2170A081
:1046900005F062FADFF8F081D8F80000F7B200F018
:1046A0000700B04207D288F80070D8F8000000F088
:1046B0000700B0424FD12068744D810729D54007CB
:1046C00003D5286840F4E05028602078000703D51F
:1046D000286840F460402860A068A0B1802812D00B
:1046E000902810D0A0280ED0B0280CD0C0280AD016
:1046F000D02808D0E02806D0F02804D040F27E214F
:1047000053A005F029FA2868A16820F0F0000843BA
:1047100028602078C00743D0DFF870916068A9F165
:10472000080988B1012822D0022824D0032822D0E9
:1047300040F2852146A005F00FFA6068012816D0E6
:10474000022818D0032816D0D9F8000080070028C6
:1047500033DA286800E030E0616820F003000843A5
:104760002860FFF753FE814641F2883A11E0D9F8FC
:1047700000008003EBE7D9F800008001E7E700BF05
:10478000FFF744FEA0EB0901514502D90320BDE823
:10479000F0872868616800F00C00B0EB810FEFD162
:1047A000D8F80010404601F00701B14207D9077060
:1047B000006800F00700B04201D00120E7E7207850
:1047C0004FF4805640074FF4A0574FF4C0584FF4B1
:1047D000E05914D5E06860B1B0420AD0B84208D0C0
:1047E000404506D0484504D040F2C32118A005F04A
:1047F000B3F92868E16820F4E05008432860207885
:10480000000715D5206960B1B0420AD0B84208D07F
:10481000404506D0484504D040F2CA210CA005F01E
:104820009BF92868216920F4604040EAC1002860B3
:1048300000F054F82968164AC1F30311515CC840CE
:104840001449086014480068FFF708FE00209EE73E
:104850002E2E2F447269766572732F53544D333266
:10486000463478785F48414C5F4472697665722FB0
:104870005372632F73746D3332663478785F686176
:104880006C5F7263632E6300003C02400838024094
:10489000C49E0008241000201C1000200448054974
:1048A00000680968044AC1F38221515CC84070471E
:1048B0002410002008380240D49E0008044805490E
:1048C00000680968044AC1F34231515CC84070472E
:1048D0002410002008380240D49E0008154810B566
:1048E000006810F00C02144813D04110042A0FD0B5
:1048F000082A0ED10F4C241F2268236802F03F02C1
:104900005B0207D52068C0F38810A0FB010106E018
:10491000084610BD2168C1F38811A1FB00010023E6
:10492000FBF750FC2168C1F30141491C4900B0FB71
:10493000F1F010BD083802400024F4002DE9F84FD2
:1049400004007DD020680F2803D9E621F7A005F0E8
:1049500003F92078DFF80C94C007A9F1040555D0BD
:1049600060684FF480364FF4A02738B1B04205D0CC
:10497000B84203D0EB21EDA005F0EEF8F948001D98
:104980000168C1F38101012908D00068C0F38100EA
:1049900002280AD1D9F80000400206D52868800311
:1049A00034D560680028CCD030E06068B04203D1D4
:1049B000286840F480300CE0B842286803D140F405
:1049C00080202860F4E720F480302860286820F4F4
:1049D00080202860606860B1FFF718FD064604E09B
:1049E000FFF714FD801B64287ED828688003F7D564
:1049F0000CE0FFF70BFD064605E000BFFFF706FDE4
:104A0000801B6428F0D828688003F7D42078DFF86A
:104A1000588380074FF0000A56D5E06830B101286E
:104A200004D040F21D11C1A005F096F820691F289E
:104A300004D94FF48F71BDA005F08EF8C94800E08D
:104A400092E0001D016811F00C0F08D00068C0F35F
:104A50008100022810D1D9F8000040020CD4286847
:104A6000800702D5E06801287ED12868216920F0FE
:104A7000F80040EAC10017E0E068B8B10120C8F8CA
:104A80000000FFF7C3FC064605E000BFFFF7BEFCD1
:104A9000801B0228A8D828688007F7D5286820F04E
:104AA000F801206941EAC00028600DE0C8F800A0C4
:104AB000FFF7ACFC064604E0FFF7A8FC801B0228C9
:104AC00092D828688007F7D4207800072ED5A54E05
:104AD000A64F60697036D0B1012808D04FF4AF718D
:104AE00092A005F039F800E04BE1606978B101204F
:104AF0003860FFF78BFC074605E000BFFFF786FC38
:104B0000C01B0228C6D830688007F7D50EE0C7F86A
:104B100000A0FFF77BFC074605E000BFFFF776FC2F
:104B2000C01B0228B6D830688007F7D42078400729
:104B300076D5A068002740B1012806D0052804D00A
:104B40004FF4C57179A005F007F8DFF818B20BF142
:104B50003C0BDBF80000C0000DD4DBF8001041F086
:104B60008051CBF8001000E038E1DBF800000127AD
:104B700000F0805000907E4E3068C00511D430683F
:104B800040F480703060FFF741FC009006E000BF09
:104B9000FFF73CFC0099401A022891D83068C00504
:104BA000F6D5704EA0686C3601280FD00528306805
:104BB00010D020F001003060306820F00400306038
:104BC000A068B8B1FFF722FC00900FE0306840F019
:104BD0000100F4E740F004003060F7E7FFF716FC4F
:104BE0000099411A41F2883081428BD830688007A1
:104BF000F4D50EE0FFF70AFC009007E0FFF706FC93
:104C00000099411A41F2883081428BD83068800780
:104C1000F4D42FB1DBF8001021F08051CBF8001054
:104C2000A069002876D0012809D0022807D040F2D8
:104C3000CD113EA004F090FFA0690028F2D04948B1
:104C4000001D0068C0F381000228A0696DD0022811
:104C500005D0C8F860A0FFF7D9FB044694E0E069EE
:104C600038B1B0F5800F04D04FF4EB712FA004F0F1
:104C700073FF206A801E3D2804D940F2D7112BA073
:104C800004F06AFF606A3238B0F5BF7F04D94FF490
:104C9000EC7126A004F060FFA06A02280AD0042864
:104CA00008D0062806D0082804D040F2D9111FA049
:104CB00004F052FFE06A801E0D2804D94FF4ED7114
:104CC0001AA004F049FF4746C8F860A0FFF79EFB12
:104CD000064604E0FFF79AFB801B022851D828689B
:104CE0008001F7D4D4E907010843A16A214A4908A1
:104CF00002EB0141626A41EA8211084394F82C10E8
:104D000040EA0161C9F8001001203866FFF77EFB18
:104D1000044606E064E000BFFFF778FB001B0228B2
:104D20002FD828688001F7D55AE031E02E2E2F4485
:104D30007269766572732F53544D333246347878E6
:104D40005F48414C5F4472697665722F5372632FDE
:104D500073746D3332663478785F68616C5F726348
:104D6000632E63000438024000004742800E474231
:104D7000007000400000FFFFFFF748FB001B022807
:104D800002D90320BDE8F88F28688001F4D427E019
:104D90000128F7D0D9F80000E26900F480019142BF
:104DA0001CD1226A00F03F01914217D147F6C07131
:104DB000626A0140B1EB821F10D1A26A4FF0FF334B
:104DC00000F4403103EB5202B1EB024F06D194F8EC
:104DD0002C1000F07060B0EB016F01D00120D1E722
:104DE0000020CFE710B5401EB0F1807F01D3012035
:104DF00010BD4FF0E02460610F21601704F082F8CD
:104E00000020A06107202061002010BD704770477E
:104E10002DE9F05F044600683A4E3B4FDFF8EC8026
:104E2000DFF8EC90DFF8ECA00D464FF0804BB0427D
:104E300015D0584513D0B84211D040450FD0484541
:104E40000DD04FEAB641884209D03349884206D096
:104E5000504504D040F2A97130A004F07DFE2868CE
:104E600090B1102810D020280ED030280CD0402827
:104E70000AD0502808D0602806D0702804D040F20C
:104E8000AA7126A004F068FE6868802805D020B1C9
:104E900040F2AB7121A004F05FFE94F83C000128C1
:104EA0002DD0012284F83C20022084F83D002168A6
:104EB00048688B6820F0700C286840EA0C00486055
:104EC0002068B0420FD058450DD0B8420BD04045B5
:104ED00009D0484507D0504505D01F49884202D027
:104EE0001E49884204D1696823F080031943816018
:104EF00084F83D20002084F83C00BDE8F09F0220AB
:104F0000FBE70000000001400004004000080040F2
:104F1000000C004000040140001400402E2E2F44DD
:104F20007269766572732F53544D333246347878F4
:104F30005F48414C5F4472697665722F5372632FEC
:104F400073746D3332663478785F68616C5F74694E
:104F50006D5F65782E63000000400140001800403E
:104F600070B5040057D0484920688E03474D8842E9
:104F700029D0B04227D04649884224D045498842AA
:104F800021D0A8421FD0444988421CD043498842BE
:104F900019D04349884216D04249884213D0424929
:104FA000884210D0414988420DD0414988420AD0F8
:104FB0004049884207D04049884204D040F213114A
:104FC0003EA004F0C9FDA06860B110280AD02028D6
:104FD00008D0402806D0602804D04FF48A7137A04A
:104FE00004F0BAFD206950B1B0F5807F07D0B0F56C
:104FF000007F04D040F2151130A004F0ADFD206810
:10500000B0420AD0A84208D0E0684FF6FE71401EB8
:10501000884209D903E0012070BDE06820B94FF44F
:105020008B7126A004F098FDA06930B1802804D0CF
:1050300040F2171121A004F08FFD94F83D0028B92B
:10504000002084F83C00204600F054F8022084F848
:105050003D00211D206803F091F9012084F84600ED
:1050600084F83E0084F83F0084F8400084F8410052
:1050700084F8420084F8430084F8440084F8450032
:1050800084F83D00002070BD00000140000C00408D
:1050900000040040000800400010004000140040E0
:1050A000000401400040014000440140004801402C
:1050B00000180040001C0040002000402E2E2F440D
:1050C0007269766572732F53544D33324634787853
:1050D0005F48414C5F4472697665722F5372632F4B
:1050E00073746D3332663478785F68616C5F7469AD
:1050F0006D2E630010B586B0044614216846FBF798
:10510000ABF8216800222448B1F1804F0CD0234B2A
:10511000994211D1016841F002010160006800F07C
:105120000200059006B010BD016841F00101016068
:10513000006800F00100F4E7194B994225D101689D
:1051400041F004010160006800F00400059012487D
:105150001038016841F0080101600068694600F0FC
:1051600008000590981400900220CDE90102CDE9D5
:1051700003200C48FEF796FF002201211E20FFF7B6
:10518000D7F91E20FFF7A2F9CCE707488142C9D121
:105190000148001DBEE70000403802400004004006
:1051A00000080040000C0240000401402DE9F05FBF
:1051B000044600682D4D2E4E2E4FDFF8BC80DFF8E0
:1051C000BC90DFF8BCA0DFF8BCB0A84226D0B0F19C
:1051D000804F23D0B04221D0B8421FD040451DD0CF
:1051E0004FEAB541884219D02749884216D0484530
:1051F00014D0504512D0254988420FD02449884206
:105200000CD058450AD02349884207D02249884209
:1052100004D040F2951121A004F09EFC94F83D00CA
:10522000012802D00120BDE8F09F022084F83D0053
:105230002068A8420ED0B0F1804F0BD0B04209D008
:10524000B84207D0404505D0484503D0504501D06D
:10525000584504D1816801F00701062903D001688F
:1052600041F0010101600020DDE700000000014085
:105270000004004000080040000C00400004014011
:10528000004001400018004000140040004401406C
:1052900000480140001C0040002000402E2E2F44FA
:1052A0007269766572732F53544D33324634787871
:1052B0005F48414C5F4472697665722F5372632F69
:1052C00073746D3332663478785F68616C5F7469CB
:1052D0006D2E630010B504460168214881422BD031
:1052E000B1F1804F28D01F48814225D01E4881420D
:1052F00022D01E4881421FD01D4881421CD01D482B
:10530000814219D01C48814216D01C48814213D0DA
:105310001B48814210D01B4881420DD01A4881425F
:105320000AD01A48814207D01948814204D04FF46C
:10533000DD7118A004F010FC2068016A41F211121E
:10534000114207D1016A9210114203D1016821F084
:1053500001010160012084F83D00002010BD000023
:10536000000001400004004000080040000C004024
:1053700000100040001400400004014000400140C3
:10538000004401400048014000180040001C00405B
:10539000002000402E2E2F447269766572732F53C1
:1053A000544D3332463478785F48414C5F447269DB
:1053B0007665722F5372632F73746D33326634784F
:1053C000785F68616C5F74696D2E63002DE9F84F3A
:1053D00005460020009095F83C000C46012841D07D
:1053E000012085F83C00022085F83D0020684FF43C
:1053F000805B584516D0702814D0B0F5005F11D0EE
:1054000040280FD050280DD060280BD050B1102864
:1054100008D0202806D0302804D041F2C341D4A0BF
:1054200004F09AFB2868816821F0770121F47F411C
:1054300081602068DC49DD4ADD4BDE4EDE4FDFF85F
:105440007CC3DFF87C834FF080494FF4004A50283A
:105450007ED00FDC202804D007DC0028FBD01028E9
:1054600077D161E10220BDE8F88F3028F9D04028DB
:10547000F6D126E160286DD0702874D0584544D00C
:105480004FF400584045EBD1286888420ED048457B
:105490000CD090420AD0984208D0B04206D0B84210
:1054A00004D041F2EE41B2A004F056FBA06858B11E
:1054B000584509D0404507D0B0F5405F04D041F2CF
:1054C000F141ABA004F048FB6068504509D040B101
:1054D000022806D00A2804D041F2F241A4A004F028
:1054E0003BFBE0680F2804D941F2F341A0A004F08F
:1054F00033FBD4E90121E368286803F021F8286828
:10550000816841F48041816029E128688842FBD0AC
:105510004845F9D09042F7D09842F5D0B042F3D048
:10552000A8498842F0D0A8498842EDD0B842EBD0D3
:105530006045E9D0A5498842E6D0A5498842E3D034
:105540004045E1D0A3498842DED0A349884203E028
:105550004FE002E180E006E0D6D041F2CF4184A0E6
:1055600004F0FAFAFBE02868884212D0484510D0CF
:1055700090420ED098420CD0B0420AD0B84208D027
:10558000604506D0404504D041F2D64178A004F0F1
:10559000E3FAA06860B158450AD0B0F5005F07D0C3
:1055A000B0F5405F04D041F2D94171A004F0D4FAC3
:1055B0006068504509D040B1022806D00A2804D0BE
:1055C00041F2DA416AA004F0C7FAE0680F2804D972
:1055D00041F2DB4166A004F0BFFAD4E90121E3689F
:1055E000286802F0ADFF2968886840F0770088607D
:1055F000B5E02868884212D0484510D090420ED0BD
:1056000098420CD0B0420AD0B84208D0604506D0CB
:10561000404504D041F2025155A004F09DFA606863
:10562000504509D040B1022806D00A2804D041F2E2
:1056300005514FA004F090FAE0680F2804D941F218
:1056400006514BA004F088FAE2686168286803F00C
:10565000F5F85021286831E02868884212D0484582
:1056600010D090420ED098420CD0B0420AD0B8422E
:1056700008D0604506D0404504D041F212513CA00C
:1056800004F06AFA6068504509D040B1022806D09B
:105690000A2804D041F2155135A004F05DFAE06803
:1056A0000F2804D941F2165131A004F055FAE268EE
:1056B0006168286803F014F96021286802F04AFF45
:1056C0004DE02868884212D0484510D090420ED054
:1056D00098420CD0B0420AD0B84208D0604506D0FB
:1056E000404504D041F2225121A004F035FA60680F
:1056F000504509D040B1022806D00A2804D041F212
:1057000025511BA004F028FAE0680F2804D941F2C3
:10571000265117A004F020FAE2686168286803F0B7
:105720008DF840212868C9E72868884212D048458A
:1057300010D090420ED098420CD0B0420AD0B8425D
:1057400008D0604506D0404504D041F2355108A04C
:1057500004F002FA21682868B0E7012000900120D7
:1057600085F83D00002085F83C0000987BE60000AD
:105770002E2E2F447269766572732F53544D333237
:10578000463478785F48414C5F4472697665722F81
:105790005372632F73746D3332663478785F686147
:1057A0006C5F74696D2E63000000014000040040CE
:1057B00000080040000C004000040140004001408F
:1057C0000018004000100040001400400044014058
:1057D00000480140001C00400020004070B5214AF4
:1057E000016891423CD1017F1F4C022918D0012948
:1057F00036D1002100F04AFD05042D0C258019D07A
:10580000608800EE100AF8EE400A00EE105AB8EE7A
:10581000400A80EE801A84ED011AB0EE410A0DE0D4
:10582000042100F033FD81B26180BDE870400FA01B
:1058300003F03EBB9FED140A84ED010ADFED130A6D
:1058400020EE200A10EE100AFBF78BF841EC100B4B
:105850002946BDE8704053EC102B0DA003F028BB87
:1058600070BD0000000800400C10002054494D3469
:1058700020434832202846616C6C696E67293A20C3
:1058800025640D0A00000000000000000000C8426E
:1058900054494D34204348312028526973696E675A
:1058A000293A2025642C20447574793A20252E321B
:1058B0006625250D0A0000002DE9F84F0546002059
:1058C0000090924F2868DFF84882DFF84892DFF8AE
:1058D00048A2DFF848B216460C46B84221D0B0F1D3
:1058E000804F1ED040451CD048451AD0504518D096
:1058F000584516D08A49884213D08A49884210D028
:10590000894988420DD0894988420AD0884988420D
:1059100007D08849884204D041F21D0186A004F0D6
:105920001BF9206840B1022806D00A2804D041F2B1
:105930001E0181A004F010F96068012808D0022837
:1059400006D0032804D041F21F017BA004F004F923
:10595000A06850B1042808D0082806D00C2804D02C
:105960004FF4815174A004F0F7F8E0680F2804D9CF
:1059700041F2210170A004F0EFF895F83C000128F5
:1059800010D0012085F83C0076B1042E1CD0082EE2
:1059900045D00C2E7CD00090002085F83C0000986B
:1059A000BDE8F88F0220FBE7D4E90012E36828681D
:1059B00002F056FF2868816921F00C018161286896
:1059C0008169A268114328E02868B84215D0B0F177
:1059D000804F12D0404510D048450ED050450CD0D5
:1059E00058450AD04E49884207D05049884204D0D1
:1059F00041F2370150A004F0AFF8D4E90012E36897
:105A0000286802F07FFF2868816921F44061816184
:105A100028688169A26841EA02218161BCE728689F
:105A2000B8420FD0B0F1804F0CD040450AD0484565
:105A300008D0504506D0584504D041F247013EA059
:105A400004F08AF82868D4E90027267B036A016AF3
:105A500021F480710162C16923F4206321F0030104
:105A6000394321F0F00731074FF4206647EA11610E
:105A700006EA02221A43C16102622868C16921F064
:105A80000C01C1612868C169A26811433BE0FFE7CE
:105A90002868B8420FD0B0F1804F0CD040450AD0F2
:105AA000484508D0504506D0584504D041F257012A
:105AB00021A004F051F82868D4E90036E168026AB0
:105AC000076A27F480570762C76927F4407747EAD7
:105AD00006264FF6FF7726F4704607EA0131314378
